{"abi":[{"type":"constructor","inputs":[{"name":"_usdtToken","type":"address","internalType":"address"},{"name":"_campaignManager","type":"address","internalType":"address"},{"name":"_minDonationAmount","type":"uint256","internalType":"uint256"}],"stateMutability":"nonpayable"},{"type":"function","name":"approveFundReleaseManager","inputs":[{"name":"_fundReleaseManager","type":"address","internalType":"address"}],"outputs":[],"stateMutability":"nonpayable"},{"type":"function","name":"campaignDonations","inputs":[{"name":"","type":"uint256","internalType":"uint256"}],"outputs":[{"name":"","type":"uint256","internalType":"uint256"}],"stateMutability":"view"},{"type":"function","name":"campaignManager","inputs":[],"outputs":[{"name":"","type":"address","internalType":"contract CampaignManager"}],"stateMutability":"view"},{"type":"function","name":"donate","inputs":[{"name":"_campaignId","type":"uint256","internalType":"uint256"},{"name":"_amount","type":"uint256","internalType":"uint256"}],"outputs":[],"stateMutability":"nonpayable"},{"type":"function","name":"fundReleaseManager","inputs":[],"outputs":[{"name":"","type":"address","internalType":"address"}],"stateMutability":"view"},{"type":"function","name":"getCampaignDonationTotal","inputs":[{"name":"_campaignId","type":"uint256","internalType":"uint256"}],"outputs":[{"name":"","type":"uint256","internalType":"uint256"}],"stateMutability":"view"},{"type":"function","name":"getCampaignDonors","inputs":[{"name":"_campaignId","type":"uint256","internalType":"uint256"}],"outputs":[{"name":"","type":"address[]","internalType":"address[]"}],"stateMutability":"view"},{"type":"function","name":"getContractBalance","inputs":[],"outputs":[{"name":"","type":"uint256","internalType":"uint256"}],"stateMutability":"view"},{"type":"function","name":"getDonationAmount","inputs":[{"name":"_donor","type":"address","internalType":"address"},{"name":"_campaignId","type":"uint256","internalType":"uint256"}],"outputs":[{"name":"","type":"uint256","internalType":"uint256"}],"stateMutability":"view"},{"type":"function","name":"minDonationAmount","inputs":[],"outputs":[{"name":"","type":"uint256","internalType":"uint256"}],"stateMutability":"view"},{"type":"function","name":"owner","inputs":[],"outputs":[{"name":"","type":"address","internalType":"address"}],"stateMutability":"view"},{"type":"function","name":"pause","inputs":[],"outputs":[],"stateMutability":"nonpayable"},{"type":"function","name":"paused","inputs":[],"outputs":[{"name":"","type":"bool","internalType":"bool"}],"stateMutability":"view"},{"type":"function","name":"recoverToken","inputs":[{"name":"_token","type":"address","internalType":"address"},{"name":"_amount","type":"uint256","internalType":"uint256"}],"outputs":[],"stateMutability":"nonpayable"},{"type":"function","name":"renounceOwnership","inputs":[],"outputs":[],"stateMutability":"nonpayable"},{"type":"function","name":"setMinDonationAmount","inputs":[{"name":"_minDonationAmount","type":"uint256","internalType":"uint256"}],"outputs":[],"stateMutability":"nonpayable"},{"type":"function","name":"transferOwnership","inputs":[{"name":"newOwner","type":"address","internalType":"address"}],"outputs":[],"stateMutability":"nonpayable"},{"type":"function","name":"unpause","inputs":[],"outputs":[],"stateMutability":"nonpayable"},{"type":"function","name":"usdtToken","inputs":[],"outputs":[{"name":"","type":"address","internalType":"contract IERC20"}],"stateMutability":"view"},{"type":"function","name":"userDonations","inputs":[{"name":"","type":"address","internalType":"address"},{"name":"","type":"uint256","internalType":"uint256"}],"outputs":[{"name":"","type":"uint256","internalType":"uint256"}],"stateMutability":"view"},{"type":"event","name":"DonationReceived","inputs":[{"name":"campaignId","type":"uint256","indexed":true,"internalType":"uint256"},{"name":"donor","type":"address","indexed":true,"internalType":"address"},{"name":"amount","type":"uint256","indexed":false,"internalType":"uint256"}],"anonymous":false},{"type":"event","name":"FundReleaseManagerApproved","inputs":[{"name":"fundReleaseManager","type":"address","indexed":false,"internalType":"address"}],"anonymous":false},{"type":"event","name":"MinDonationAmountUpdated","inputs":[{"name":"previousAmount","type":"uint256","indexed":false,"internalType":"uint256"},{"name":"newAmount","type":"uint256","indexed":false,"internalType":"uint256"}],"anonymous":false},{"type":"event","name":"OwnershipTransferred","inputs":[{"name":"previousOwner","type":"address","indexed":true,"internalType":"address"},{"name":"newOwner","type":"address","indexed":true,"internalType":"address"}],"anonymous":false},{"type":"event","name":"Paused","inputs":[{"name":"account","type":"address","indexed":false,"internalType":"address"}],"anonymous":false},{"type":"event","name":"Unpaused","inputs":[{"name":"account","type":"address","indexed":false,"internalType":"address"}],"anonymous":false},{"type":"error","name":"EnforcedPause","inputs":[]},{"type":"error","name":"ExpectedPause","inputs":[]},{"type":"error","name":"OwnableInvalidOwner","inputs":[{"name":"owner","type":"address","internalType":"address"}]},{"type":"error","name":"OwnableUnauthorizedAccount","inputs":[{"name":"account","type":"address","internalType":"address"}]},{"type":"error","name":"ReentrancyGuardReentrantCall","inputs":[]},{"type":"error","name":"SafeERC20FailedOperation","inputs":[{"name":"token","type":"address","internalType":"address"}]}],"bytecode":{"object":"0x608060405234801561000f575f5ffd5b50604051611f01380380611f0183398181016040528101906100319190610390565b335f73ffffffffffffffffffffffffffffffffffffffff168173ffffffffffffffffffffffffffffffffffffffff16036100a2575f6040517f1e4fbdf700000000000000000000000000000000000000000000000000000000815260040161009991906103ef565b60405180910390fd5b6100b18161023e60201b60201c565b50600180819055505f60025f6101000a81548160ff0219169083151502179055505f73ffffffffffffffffffffffffffffffffffffffff168373ffffffffffffffffffffffffffffffffffffffff1603610140576040517f08c379a000000000000000000000000000000000000000000000000000000000815260040161013790610462565b60405180910390fd5b5f73ffffffffffffffffffffffffffffffffffffffff168273ffffffffffffffffffffffffffffffffffffffff16036101ae576040517f08c379a00000000000000000000000000000000000000000000000000000000081526004016101a5906104ca565b60405180910390fd5b82600260016101000a81548173ffffffffffffffffffffffffffffffffffffffff021916908373ffffffffffffffffffffffffffffffffffffffff1602179055508160035f6101000a81548173ffffffffffffffffffffffffffffffffffffffff021916908373ffffffffffffffffffffffffffffffffffffffff160217905550806007819055505050506104e8565b5f5f5f9054906101000a900473ffffffffffffffffffffffffffffffffffffffff169050815f5f6101000a81548173ffffffffffffffffffffffffffffffffffffffff021916908373ffffffffffffffffffffffffffffffffffffffff1602179055508173ffffffffffffffffffffffffffffffffffffffff168173ffffffffffffffffffffffffffffffffffffffff167f8be0079c531659141344cd1fd0a4f28419497f9722a3daafe3b4186f6b6457e060405160405180910390a35050565b5f5ffd5b5f73ffffffffffffffffffffffffffffffffffffffff82169050919050565b5f61032c82610303565b9050919050565b61033c81610322565b8114610346575f5ffd5b50565b5f8151905061035781610333565b92915050565b5f819050919050565b61036f8161035d565b8114610379575f5ffd5b50565b5f8151905061038a81610366565b92915050565b5f5f5f606084860312156103a7576103a66102ff565b5b5f6103b486828701610349565b93505060206103c586828701610349565b92505060406103d68682870161037c565b9150509250925092565b6103e981610322565b82525050565b5f6020820190506104025f8301846103e0565b92915050565b5f82825260208201905092915050565b7f496e76616c6964205553445420746f6b656e20616464726573730000000000005f82015250565b5f61044c601a83610408565b915061045782610418565b602082019050919050565b5f6020820190508181035f83015261047981610440565b9050919050565b7f496e76616c69642063616d706169676e206d616e6167657220616464726573735f82015250565b5f6104b4602083610408565b91506104bf82610480565b602082019050919050565b5f6020820190508181035f8301526104e1816104a8565b9050919050565b611a0c806104f55f395ff3fe608060405234801561000f575f5ffd5b506004361061012a575f3560e01c8063715018a6116100ab578063a98ad46c1161006f578063a98ad46c14610308578063b29a814014610326578063cf4ef9c714610342578063f2fde38b14610360578063fb5e76e61461037c5761012a565b8063715018a61461028a5780637e4ab5d8146102945780638456cb59146102c45780638da5cb5b146102ce578063a0f7c5f9146102ec5761012a565b80633f4ba83a116100f25780633f4ba83a146101f85780634933e631146102025780635c975abb146102325780636eca7256146102505780636f9fb98a1461026c5761012a565b80630b902f4d1461012e5780630cdd53f61461015e578063129106e51461017a578063209b7d5f146101aa578063319d7190146101da575b5f5ffd5b61014860048036038101906101439190611286565b61039a565b60405161015591906112c0565b60405180910390f35b610178600480360381019061017391906112d9565b6103af565b005b610194600480360381019061018f9190611286565b6107aa565b6040516101a191906112c0565b60405180910390f35b6101c460048036038101906101bf9190611286565b6107c4565b6040516101d191906113fe565b60405180910390f35b6101e2610860565b6040516101ef919061142d565b60405180910390f35b610200610885565b005b61021c60048036038101906102179190611470565b610897565b60405161022991906112c0565b60405180910390f35b61023a6108b7565b60405161024791906114c8565b60405180910390f35b61026a60048036038101906102659190611286565b6108cc565b005b61027461091e565b60405161028191906112c0565b60405180910390f35b6102926109be565b005b6102ae60048036038101906102a99190611470565b6109d1565b6040516102bb91906112c0565b60405180910390f35b6102cc610a27565b005b6102d6610a39565b6040516102e3919061142d565b60405180910390f35b610306600480360381019061030191906114e1565b610a60565b005b610310610c0e565b60405161031d9190611567565b60405180910390f35b610340600480360381019061033b9190611470565b610c34565b005b61034a610d22565b60405161035791906112c0565b60405180910390f35b61037a600480360381019061037591906114e1565b610d28565b005b610384610dac565b60405161039191906115a0565b60405180910390f35b6004602052805f5260405f205f915090505481565b6103b7610dd1565b6103bf610e12565b600754811015610404576040517f08c379a00000000000000000000000000000000000000000000000000000000081526004016103fb90611613565b60405180910390fd5b60035f9054906101000a900473ffffffffffffffffffffffffffffffffffffffff1673ffffffffffffffffffffffffffffffffffffffff16633b594a68836040518263ffffffff1660e01b815260040161045e91906112c0565b602060405180830381865afa158015610479573d5f5f3e3d5ffd5b505050506040513d601f19601f8201168201806040525081019061049d919061165b565b6104dc576040517f08c379a00000000000000000000000000000000000000000000000000000000081526004016104d3906116d0565b60405180910390fd5b60035f9054906101000a900473ffffffffffffffffffffffffffffffffffffffff1673ffffffffffffffffffffffffffffffffffffffff1663e1e33009836040518263ffffffff1660e01b815260040161053691906112c0565b602060405180830381865afa158015610551573d5f5f3e3d5ffd5b505050506040513d601f19601f82011682018060405250810190610575919061165b565b6105b4576040517f08c379a00000000000000000000000000000000000000000000000000000000081526004016105ab90611738565b60405180910390fd5b610603333083600260019054906101000a900473ffffffffffffffffffffffffffffffffffffffff1673ffffffffffffffffffffffffffffffffffffffff16610e58909392919063ffffffff16565b5f60055f3373ffffffffffffffffffffffffffffffffffffffff1673ffffffffffffffffffffffffffffffffffffffff1681526020019081526020015f205f8481526020019081526020015f2054036106c65760065f8381526020019081526020015f2033908060018154018082558091505060019003905f5260205f20015f9091909190916101000a81548173ffffffffffffffffffffffffffffffffffffffff021916908373ffffffffffffffffffffffffffffffffffffffff1602179055505b8060055f3373ffffffffffffffffffffffffffffffffffffffff1673ffffffffffffffffffffffffffffffffffffffff1681526020019081526020015f205f8481526020019081526020015f205f8282546107219190611783565b925050819055508060045f8481526020019081526020015f205f8282546107489190611783565b925050819055503373ffffffffffffffffffffffffffffffffffffffff16827f0b5b4c52969ff7329ecf7ee536409fda87812b15a8622bc6e8cdeab3aee14a268360405161079691906112c0565b60405180910390a36107a6610eda565b5050565b5f60045f8381526020019081526020015f20549050919050565b606060065f8381526020019081526020015f2080548060200260200160405190810160405280929190818152602001828054801561085457602002820191905f5260205f20905b815f9054906101000a900473ffffffffffffffffffffffffffffffffffffffff1673ffffffffffffffffffffffffffffffffffffffff168152602001906001019080831161080b575b50505050509050919050565b60085f9054906101000a900473ffffffffffffffffffffffffffffffffffffffff1681565b61088d610ee3565b610895610f6a565b565b6005602052815f5260405f20602052805f5260405f205f91509150505481565b5f60025f9054906101000a900460ff16905090565b6108d4610ee3565b5f6007549050816007819055507f975c29b23d76721a552d63dd34cc2cd9a6bbde1eb10ca1459f771553f2cec9b781836040516109129291906117b6565b60405180910390a15050565b5f600260019054906101000a900473ffffffffffffffffffffffffffffffffffffffff1673ffffffffffffffffffffffffffffffffffffffff166370a08231306040518263ffffffff1660e01b815260040161097a919061142d565b602060405180830381865afa158015610995573d5f5f3e3d5ffd5b505050506040513d601f19601f820116820180604052508101906109b991906117f1565b905090565b6109c6610ee3565b6109cf5f610fcb565b565b5f60055f8473ffffffffffffffffffffffffffffffffffffffff1673ffffffffffffffffffffffffffffffffffffffff1681526020019081526020015f205f8381526020019081526020015f2054905092915050565b610a2f610ee3565b610a3761108c565b565b5f5f5f9054906101000a900473ffffffffffffffffffffffffffffffffffffffff16905090565b610a68610ee3565b5f73ffffffffffffffffffffffffffffffffffffffff168173ffffffffffffffffffffffffffffffffffffffff1603610ad6576040517f08c379a0000000000000000000000000000000000000000000000000000000008152600401610acd9061188c565b60405180910390fd5b8060085f6101000a81548173ffffffffffffffffffffffffffffffffffffffff021916908373ffffffffffffffffffffffffffffffffffffffff160217905550600260019054906101000a900473ffffffffffffffffffffffffffffffffffffffff1673ffffffffffffffffffffffffffffffffffffffff1663095ea7b3827fffffffffffffffffffffffffffffffffffffffffffffffffffffffffffffffff6040518363ffffffff1660e01b8152600401610b939291906118aa565b6020604051808303815f875af1158015610baf573d5f5f3e3d5ffd5b505050506040513d601f19601f82011682018060405250810190610bd3919061165b565b507f32326a6dbbdbcd97f4fd7e54e1082d98b2ffd3b30a0825bafcf8f26d42301cf381604051610c03919061142d565b60405180910390a150565b600260019054906101000a900473ffffffffffffffffffffffffffffffffffffffff1681565b610c3c610ee3565b5f73ffffffffffffffffffffffffffffffffffffffff168273ffffffffffffffffffffffffffffffffffffffff1603610caa576040517f08c379a0000000000000000000000000000000000000000000000000000000008152600401610ca19061191b565b60405180910390fd5b5f8111610cec576040517f08c379a0000000000000000000000000000000000000000000000000000000008152600401610ce390611983565b60405180910390fd5b610d1e610cf7610a39565b828473ffffffffffffffffffffffffffffffffffffffff166110ee9092919063ffffffff16565b5050565b60075481565b610d30610ee3565b5f73ffffffffffffffffffffffffffffffffffffffff168173ffffffffffffffffffffffffffffffffffffffff1603610da0575f6040517f1e4fbdf7000000000000000000000000000000000000000000000000000000008152600401610d97919061142d565b60405180910390fd5b610da981610fcb565b50565b60035f9054906101000a900473ffffffffffffffffffffffffffffffffffffffff1681565b610dd96108b7565b15610e10576040517fd93c066500000000000000000000000000000000000000000000000000000000815260040160405180910390fd5b565b600260015403610e4e576040517f3ee5aeb500000000000000000000000000000000000000000000000000000000815260040160405180910390fd5b6002600181905550565b610ed4848573ffffffffffffffffffffffffffffffffffffffff166323b872dd868686604051602401610e8d939291906119a1565b604051602081830303815290604052915060e01b6020820180517bffffffffffffffffffffffffffffffffffffffffffffffffffffffff838183161783525050505061116d565b50505050565b60018081905550565b610eeb611208565b73ffffffffffffffffffffffffffffffffffffffff16610f09610a39565b73ffffffffffffffffffffffffffffffffffffffff1614610f6857610f2c611208565b6040517f118cdaa7000000000000000000000000000000000000000000000000000000008152600401610f5f919061142d565b60405180910390fd5b565b610f7261120f565b5f60025f6101000a81548160ff0219169083151502179055507f5db9ee0a495bf2e6ff9c91a7834c1ba4fdd244a5e8aa4e537bd38aeae4b073aa610fb4611208565b604051610fc1919061142d565b60405180910390a1565b5f5f5f9054906101000a900473ffffffffffffffffffffffffffffffffffffffff169050815f5f6101000a81548173ffffffffffffffffffffffffffffffffffffffff021916908373ffffffffffffffffffffffffffffffffffffffff1602179055508173ffffffffffffffffffffffffffffffffffffffff168173ffffffffffffffffffffffffffffffffffffffff167f8be0079c531659141344cd1fd0a4f28419497f9722a3daafe3b4186f6b6457e060405160405180910390a35050565b611094610dd1565b600160025f6101000a81548160ff0219169083151502179055507f62e78cea01bee320cd4e420270b5ea74000d11b0c9f74754ebdbfc544b05a2586110d7611208565b6040516110e4919061142d565b60405180910390a1565b611168838473ffffffffffffffffffffffffffffffffffffffff1663a9059cbb85856040516024016111219291906118aa565b604051602081830303815290604052915060e01b6020820180517bffffffffffffffffffffffffffffffffffffffffffffffffffffffff838183161783525050505061116d565b505050565b5f5f60205f8451602086015f885af18061118c576040513d5f823e3d81fd5b3d92505f519150505f82146111a55760018114156111c0565b5f8473ffffffffffffffffffffffffffffffffffffffff163b145b1561120257836040517f5274afe70000000000000000000000000000000000000000000000000000000081526004016111f9919061142d565b60405180910390fd5b50505050565b5f33905090565b6112176108b7565b61124d576040517f8dfc202b00000000000000000000000000000000000000000000000000000000815260040160405180910390fd5b565b5f5ffd5b5f819050919050565b61126581611253565b811461126f575f5ffd5b50565b5f813590506112808161125c565b92915050565b5f6020828403121561129b5761129a61124f565b5b5f6112a884828501611272565b91505092915050565b6112ba81611253565b82525050565b5f6020820190506112d35f8301846112b1565b92915050565b5f5f604083850312156112ef576112ee61124f565b5b5f6112fc85828601611272565b925050602061130d85828601611272565b9150509250929050565b5f81519050919050565b5f82825260208201905092915050565b5f819050602082019050919050565b5f73ffffffffffffffffffffffffffffffffffffffff82169050919050565b5f61136982611340565b9050919050565b6113798161135f565b82525050565b5f61138a8383611370565b60208301905092915050565b5f602082019050919050565b5f6113ac82611317565b6113b68185611321565b93506113c183611331565b805f5b838110156113f15781516113d8888261137f565b97506113e383611396565b9250506001810190506113c4565b5085935050505092915050565b5f6020820190508181035f83015261141681846113a2565b905092915050565b6114278161135f565b82525050565b5f6020820190506114405f83018461141e565b92915050565b61144f8161135f565b8114611459575f5ffd5b50565b5f8135905061146a81611446565b92915050565b5f5f604083850312156114865761148561124f565b5b5f6114938582860161145c565b92505060206114a485828601611272565b9150509250929050565b5f8115159050919050565b6114c2816114ae565b82525050565b5f6020820190506114db5f8301846114b9565b92915050565b5f602082840312156114f6576114f561124f565b5b5f6115038482850161145c565b91505092915050565b5f819050919050565b5f61152f61152a61152584611340565b61150c565b611340565b9050919050565b5f61154082611515565b9050919050565b5f61155182611536565b9050919050565b61156181611547565b82525050565b5f60208201905061157a5f830184611558565b92915050565b5f61158a82611536565b9050919050565b61159a81611580565b82525050565b5f6020820190506115b35f830184611591565b92915050565b5f82825260208201905092915050565b7f446f6e6174696f6e2062656c6f77206d696e696d756d20616d6f756e740000005f82015250565b5f6115fd601d836115b9565b9150611608826115c9565b602082019050919050565b5f6020820190508181035f83015261162a816115f1565b9050919050565b61163a816114ae565b8114611644575f5ffd5b50565b5f8151905061165581611631565b92915050565b5f602082840312156116705761166f61124f565b5b5f61167d84828501611647565b91505092915050565b7f43616d706169676e20646f6573206e6f742065786973740000000000000000005f82015250565b5f6116ba6017836115b9565b91506116c582611686565b602082019050919050565b5f6020820190508181035f8301526116e7816116ae565b9050919050565b7f43616d706169676e206973206e6f7420616374697665000000000000000000005f82015250565b5f6117226016836115b9565b915061172d826116ee565b602082019050919050565b5f6020820190508181035f83015261174f81611716565b9050919050565b7f4e487b71000000000000000000000000000000000000000000000000000000005f52601160045260245ffd5b5f61178d82611253565b915061179883611253565b92508282019050808211156117b0576117af611756565b5b92915050565b5f6040820190506117c95f8301856112b1565b6117d660208301846112b1565b9392505050565b5f815190506117eb8161125c565b92915050565b5f602082840312156118065761180561124f565b5b5f611813848285016117dd565b91505092915050565b7f496e76616c69642066756e642072656c65617365206d616e61676572206164645f8201527f7265737300000000000000000000000000000000000000000000000000000000602082015250565b5f6118766024836115b9565b91506118818261181c565b604082019050919050565b5f6020820190508181035f8301526118a38161186a565b9050919050565b5f6040820190506118bd5f83018561141e565b6118ca60208301846112b1565b9392505050565b7f496e76616c696420746f6b656e206164647265737300000000000000000000005f82015250565b5f6119056015836115b9565b9150611910826118d1565b602082019050919050565b5f6020820190508181035f830152611932816118f9565b9050919050565b7f416d6f756e74206d7573742062652067726561746572207468616e207a65726f5f82015250565b5f61196d6020836115b9565b915061197882611939565b602082019050919050565b5f6020820190508181035f83015261199a81611961565b9050919050565b5f6060820190506119b45f83018661141e565b6119c1602083018561141e565b6119ce60408301846112b1565b94935050505056fea2646970667358221220287f47852d2a0731fdb6fb73fd0f3ff6a97d4b8d068da4a9e01e43b6359c28e264736f6c634300081c0033","linkReferences":{}},"methodIdentifiers":{"approveFundReleaseManager(address)":"a0f7c5f9","campaignDonations(uint256)":"0b902f4d","campaignManager()":"fb5e76e6","donate(uint256,uint256)":"0cdd53f6","fundReleaseManager()":"319d7190","getCampaignDonationTotal(uint256)":"129106e5","getCampaignDonors(uint256)":"209b7d5f","getContractBalance()":"6f9fb98a","getDonationAmount(address,uint256)":"7e4ab5d8","minDonationAmount()":"cf4ef9c7","owner()":"8da5cb5b","pause()":"8456cb59","paused()":"5c975abb","recoverToken(address,uint256)":"b29a8140","renounceOwnership()":"715018a6","setMinDonationAmount(uint256)":"6eca7256","transferOwnership(address)":"f2fde38b","unpause()":"3f4ba83a","usdtToken()":"a98ad46c","userDonations(address,uint256)":"4933e631"},"id":33}