{"abi":[{"type":"constructor","inputs":[{"name":"_usdtAddress","type":"address","internalType":"address"}],"stateMutability":"nonpayable"},{"type":"function","name":"donate","inputs":[{"name":"amount","type":"uint256","internalType":"uint256"}],"outputs":[],"stateMutability":"nonpayable"},{"type":"function","name":"donations","inputs":[{"name":"","type":"address","internalType":"address"}],"outputs":[{"name":"","type":"uint256","internalType":"uint256"}],"stateMutability":"view"},{"type":"function","name":"getTotalDonations","inputs":[],"outputs":[{"name":"","type":"uint256","internalType":"uint256"}],"stateMutability":"view"},{"type":"function","name":"owner","inputs":[],"outputs":[{"name":"","type":"address","internalType":"address"}],"stateMutability":"view"},{"type":"function","name":"usdt","inputs":[],"outputs":[{"name":"","type":"address","internalType":"contract IERC20"}],"stateMutability":"view"},{"type":"event","name":"DonationReceived","inputs":[{"name":"donor","type":"address","indexed":true,"internalType":"address"},{"name":"amount","type":"uint256","indexed":false,"internalType":"uint256"}],"anonymous":false}],"bytecode":{"object":"0x608060405234801561000f575f5ffd5b5060405161092438038061092483398181016040528101906100319190610114565b3360015f6101000a81548173ffffffffffffffffffffffffffffffffffffffff021916908373ffffffffffffffffffffffffffffffffffffffff160217905550805f5f6101000a81548173ffffffffffffffffffffffffffffffffffffffff021916908373ffffffffffffffffffffffffffffffffffffffff1602179055505061013f565b5f5ffd5b5f73ffffffffffffffffffffffffffffffffffffffff82169050919050565b5f6100e3826100ba565b9050919050565b6100f3816100d9565b81146100fd575f5ffd5b50565b5f8151905061010e816100ea565b92915050565b5f60208284031215610129576101286100b6565b5b5f61013684828501610100565b91505092915050565b6107d88061014c5f395ff3fe608060405234801561000f575f5ffd5b5060043610610055575f3560e01c80632f48ab7d14610059578063777c658f146100775780638da5cb5b14610095578063cc6cb19a146100b3578063f14faf6f146100e3575b5f5ffd5b6100616100ff565b60405161006e9190610437565b60405180910390f35b61007f610123565b60405161008c9190610468565b60405180910390f35b61009d6101c1565b6040516100aa91906104a1565b60405180910390f35b6100cd60048036038101906100c891906104e8565b6101e6565b6040516100da9190610468565b60405180910390f35b6100fd60048036038101906100f8919061053d565b6101fb565b005b5f5f9054906101000a900473ffffffffffffffffffffffffffffffffffffffff1681565b5f5f5f9054906101000a900473ffffffffffffffffffffffffffffffffffffffff1673ffffffffffffffffffffffffffffffffffffffff166370a08231306040518263ffffffff1660e01b815260040161017d91906104a1565b602060405180830381865afa158015610198573d5f5f3e3d5ffd5b505050506040513d601f19601f820116820180604052508101906101bc919061057c565b905090565b60015f9054906101000a900473ffffffffffffffffffffffffffffffffffffffff1681565b6002602052805f5260405f205f915090505481565b5f811161023d576040517f08c379a000000000000000000000000000000000000000000000000000000000815260040161023490610627565b60405180910390fd5b5f5f9054906101000a900473ffffffffffffffffffffffffffffffffffffffff1673ffffffffffffffffffffffffffffffffffffffff166323b872dd3330846040518463ffffffff1660e01b815260040161029a93929190610645565b6020604051808303815f875af11580156102b6573d5f5f3e3d5ffd5b505050506040513d601f19601f820116820180604052508101906102da91906106af565b610319576040517f08c379a000000000000000000000000000000000000000000000000000000000815260040161031090610724565b60405180910390fd5b8060025f3373ffffffffffffffffffffffffffffffffffffffff1673ffffffffffffffffffffffffffffffffffffffff1681526020019081526020015f205f828254610365919061076f565b925050819055503373ffffffffffffffffffffffffffffffffffffffff167f264f630d9efa0d07053a31163641d9fcc0adafc9d9e76f1c37c2ce3a558d2c52826040516103b29190610468565b60405180910390a250565b5f73ffffffffffffffffffffffffffffffffffffffff82169050919050565b5f819050919050565b5f6103ff6103fa6103f5846103bd565b6103dc565b6103bd565b9050919050565b5f610410826103e5565b9050919050565b5f61042182610406565b9050919050565b61043181610417565b82525050565b5f60208201905061044a5f830184610428565b92915050565b5f819050919050565b61046281610450565b82525050565b5f60208201905061047b5f830184610459565b92915050565b5f61048b826103bd565b9050919050565b61049b81610481565b82525050565b5f6020820190506104b45f830184610492565b92915050565b5f5ffd5b6104c781610481565b81146104d1575f5ffd5b50565b5f813590506104e2816104be565b92915050565b5f602082840312156104fd576104fc6104ba565b5b5f61050a848285016104d4565b91505092915050565b61051c81610450565b8114610526575f5ffd5b50565b5f8135905061053781610513565b92915050565b5f60208284031215610552576105516104ba565b5b5f61055f84828501610529565b91505092915050565b5f8151905061057681610513565b92915050565b5f60208284031215610591576105906104ba565b5b5f61059e84828501610568565b91505092915050565b5f82825260208201905092915050565b7f446f6e6174696f6e206d7573742062652067726561746572207468616e207a655f8201527f726f000000000000000000000000000000000000000000000000000000000000602082015250565b5f6106116022836105a7565b915061061c826105b7565b604082019050919050565b5f6020820190508181035f83015261063e81610605565b9050919050565b5f6060820190506106585f830186610492565b6106656020830185610492565b6106726040830184610459565b949350505050565b5f8115159050919050565b61068e8161067a565b8114610698575f5ffd5b50565b5f815190506106a981610685565b92915050565b5f602082840312156106c4576106c36104ba565b5b5f6106d18482850161069b565b91505092915050565b7f5472616e73666572206661696c656400000000000000000000000000000000005f82015250565b5f61070e600f836105a7565b9150610719826106da565b602082019050919050565b5f6020820190508181035f83015261073b81610702565b9050919050565b7f4e487b71000000000000000000000000000000000000000000000000000000005f52601160045260245ffd5b5f61077982610450565b915061078483610450565b925082820190508082111561079c5761079b610742565b5b9291505056fea264697066735822122060e1f26cae950f27a53d7071636227a24fc89b9fb603414fb1e2c4186241482164736f6c634300081c0033","linkReferences":{}},"methodIdentifiers":{"donate(uint256)":"f14faf6f","donations(address)":"cc6cb19a","getTotalDonations()":"777c658f","owner()":"8da5cb5b","usdt()":"2f48ab7d"},"id":23}