{"abi":[{"type":"constructor","inputs":[{"name":"_usdtAddress","type":"address","internalType":"address"},{"name":"_minDonationAmount","type":"uint256","internalType":"uint256"}],"stateMutability":"nonpayable"},{"type":"function","name":"campaignManagerContract","inputs":[],"outputs":[{"name":"","type":"address","internalType":"address"}],"stateMutability":"view"},{"type":"function","name":"donate","inputs":[{"name":"amount","type":"uint256","internalType":"uint256"},{"name":"campaignId","type":"string","internalType":"string"}],"outputs":[],"stateMutability":"nonpayable"},{"type":"function","name":"donations","inputs":[{"name":"","type":"address","internalType":"address"}],"outputs":[{"name":"","type":"uint256","internalType":"uint256"}],"stateMutability":"view"},{"type":"function","name":"fundDistributorContract","inputs":[],"outputs":[{"name":"","type":"address","internalType":"address"}],"stateMutability":"view"},{"type":"function","name":"getContractBalance","inputs":[],"outputs":[{"name":"","type":"uint256","internalType":"uint256"}],"stateMutability":"view"},{"type":"function","name":"getDonationByDonor","inputs":[{"name":"donor","type":"address","internalType":"address"}],"outputs":[{"name":"","type":"uint256","internalType":"uint256"}],"stateMutability":"view"},{"type":"function","name":"minDonationAmount","inputs":[],"outputs":[{"name":"","type":"uint256","internalType":"uint256"}],"stateMutability":"view"},{"type":"function","name":"owner","inputs":[],"outputs":[{"name":"","type":"address","internalType":"address"}],"stateMutability":"view"},{"type":"function","name":"pause","inputs":[],"outputs":[],"stateMutability":"nonpayable"},{"type":"function","name":"paused","inputs":[],"outputs":[{"name":"","type":"bool","internalType":"bool"}],"stateMutability":"view"},{"type":"function","name":"proofStorageContract","inputs":[],"outputs":[{"name":"","type":"address","internalType":"address"}],"stateMutability":"view"},{"type":"function","name":"recoverToken","inputs":[{"name":"tokenAddress","type":"address","internalType":"address"}],"outputs":[],"stateMutability":"nonpayable"},{"type":"function","name":"renounceOwnership","inputs":[],"outputs":[],"stateMutability":"nonpayable"},{"type":"function","name":"setCampaignManagerContract","inputs":[{"name":"_campaignManagerContract","type":"address","internalType":"address"}],"outputs":[],"stateMutability":"nonpayable"},{"type":"function","name":"setFundDistributorContract","inputs":[{"name":"_fundDistributorContract","type":"address","internalType":"address"}],"outputs":[],"stateMutability":"nonpayable"},{"type":"function","name":"setMinDonationAmount","inputs":[{"name":"_minDonationAmount","type":"uint256","internalType":"uint256"}],"outputs":[],"stateMutability":"nonpayable"},{"type":"function","name":"setProofStorageContract","inputs":[{"name":"_proofStorageContract","type":"address","internalType":"address"}],"outputs":[],"stateMutability":"nonpayable"},{"type":"function","name":"totalDonationsReceived","inputs":[],"outputs":[{"name":"","type":"uint256","internalType":"uint256"}],"stateMutability":"view"},{"type":"function","name":"transferOwnership","inputs":[{"name":"newOwner","type":"address","internalType":"address"}],"outputs":[],"stateMutability":"nonpayable"},{"type":"function","name":"transferToDistributor","inputs":[{"name":"amount","type":"uint256","internalType":"uint256"}],"outputs":[],"stateMutability":"nonpayable"},{"type":"function","name":"unpause","inputs":[],"outputs":[],"stateMutability":"nonpayable"},{"type":"function","name":"usdt","inputs":[],"outputs":[{"name":"","type":"address","internalType":"contract IERC20"}],"stateMutability":"view"},{"type":"event","name":"DonationReceived","inputs":[{"name":"donor","type":"address","indexed":true,"internalType":"address"},{"name":"amount","type":"uint256","indexed":false,"internalType":"uint256"},{"name":"timestamp","type":"uint256","indexed":false,"internalType":"uint256"},{"name":"campaignId","type":"string","indexed":false,"internalType":"string"}],"anonymous":false},{"type":"event","name":"FundsTransferred","inputs":[{"name":"to","type":"address","indexed":true,"internalType":"address"},{"name":"amount","type":"uint256","indexed":false,"internalType":"uint256"},{"name":"timestamp","type":"uint256","indexed":false,"internalType":"uint256"}],"anonymous":false},{"type":"event","name":"MinDonationAmountUpdated","inputs":[{"name":"previousAmount","type":"uint256","indexed":false,"internalType":"uint256"},{"name":"newAmount","type":"uint256","indexed":false,"internalType":"uint256"}],"anonymous":false},{"type":"event","name":"OwnershipTransferred","inputs":[{"name":"previousOwner","type":"address","indexed":true,"internalType":"address"},{"name":"newOwner","type":"address","indexed":true,"internalType":"address"}],"anonymous":false},{"type":"event","name":"Paused","inputs":[{"name":"account","type":"address","indexed":false,"internalType":"address"}],"anonymous":false},{"type":"event","name":"SystemContractUpdated","inputs":[{"name":"contractType","type":"string","indexed":false,"internalType":"string"},{"name":"previousAddress","type":"address","indexed":false,"internalType":"address"},{"name":"newAddress","type":"address","indexed":false,"internalType":"address"}],"anonymous":false},{"type":"event","name":"Unpaused","inputs":[{"name":"account","type":"address","indexed":false,"internalType":"address"}],"anonymous":false},{"type":"error","name":"EnforcedPause","inputs":[]},{"type":"error","name":"ExpectedPause","inputs":[]},{"type":"error","name":"OwnableInvalidOwner","inputs":[{"name":"owner","type":"address","internalType":"address"}]},{"type":"error","name":"OwnableUnauthorizedAccount","inputs":[{"name":"account","type":"address","internalType":"address"}]},{"type":"error","name":"ReentrancyGuardReentrantCall","inputs":[]}],"bytecode":{"object":"0x608060405234801561000f575f5ffd5b506040516124df3803806124df833981810160405281019061003191906102e1565b335f73ffffffffffffffffffffffffffffffffffffffff168173ffffffffffffffffffffffffffffffffffffffff16036100a2575f6040517f1e4fbdf7000000000000000000000000000000000000000000000000000000008152600401610099919061032e565b60405180910390fd5b6100b18161018f60201b60201c565b50600180819055505f60025f6101000a81548160ff0219169083151502179055505f73ffffffffffffffffffffffffffffffffffffffff168273ffffffffffffffffffffffffffffffffffffffff1603610140576040517f08c379a0000000000000000000000000000000000000000000000000000000008152600401610137906103a1565b60405180910390fd5b81600260016101000a81548173ffffffffffffffffffffffffffffffffffffffff021916908373ffffffffffffffffffffffffffffffffffffffff1602179055508060058190555050506103bf565b5f5f5f9054906101000a900473ffffffffffffffffffffffffffffffffffffffff169050815f5f6101000a81548173ffffffffffffffffffffffffffffffffffffffff021916908373ffffffffffffffffffffffffffffffffffffffff1602179055508173ffffffffffffffffffffffffffffffffffffffff168173ffffffffffffffffffffffffffffffffffffffff167f8be0079c531659141344cd1fd0a4f28419497f9722a3daafe3b4186f6b6457e060405160405180910390a35050565b5f5ffd5b5f73ffffffffffffffffffffffffffffffffffffffff82169050919050565b5f61027d82610254565b9050919050565b61028d81610273565b8114610297575f5ffd5b50565b5f815190506102a881610284565b92915050565b5f819050919050565b6102c0816102ae565b81146102ca575f5ffd5b50565b5f815190506102db816102b7565b92915050565b5f5f604083850312156102f7576102f6610250565b5b5f6103048582860161029a565b9250506020610315858286016102cd565b9150509250929050565b61032881610273565b82525050565b5f6020820190506103415f83018461031f565b92915050565b5f82825260208201905092915050565b7f496e76616c6964205553445420616464726573730000000000000000000000005f82015250565b5f61038b601483610347565b915061039682610357565b602082019050919050565b5f6020820190508181035f8301526103b88161037f565b9050919050565b612113806103cc5f395ff3fe608060405234801561000f575f5ffd5b5060043610610140575f3560e01c80638d59d1f1116100b6578063cc6cb19a1161007a578063cc6cb19a146102f0578063cf43b37514610320578063cf4ef9c71461033e578063e9521b281461035c578063f2fde38b14610378578063fa3c2fc01461039457610140565b80638d59d1f1146102605780638da5cb5b1461027c5780639be65a601461029a578063a0d5bcb5146102b6578063b5e24b94146102d457610140565b80635c975abb116101085780635c975abb146101d65780636eca7256146101f45780636f9fb98a14610210578063715018a61461022e5780638456cb5914610238578063862e2fc81461024257610140565b806303deec2f1461014457806306d92800146101605780630f8c53401461017e5780632f48ab7d146101ae5780633f4ba83a146101cc575b5f5ffd5b61015e60048036038101906101599190611589565b6103b0565b005b6101686104c8565b60405161017591906115c3565b60405180910390f35b61019860048036038101906101939190611589565b6104ed565b6040516101a591906115f4565b60405180910390f35b6101b6610533565b6040516101c39190611668565b60405180910390f35b6101d4610559565b005b6101de61056b565b6040516101eb919061169b565b60405180910390f35b61020e600480360381019061020991906116de565b610580565b005b6102186105d2565b60405161022591906115f4565b60405180910390f35b610236610672565b005b610240610685565b005b61024a610697565b60405161025791906115f4565b60405180910390f35b61027a60048036038101906102759190611845565b61069d565b005b6102846109bf565b60405161029191906115c3565b60405180910390f35b6102b460048036038101906102af9190611589565b6109e6565b005b6102be610be8565b6040516102cb91906115c3565b60405180910390f35b6102ee60048036038101906102e991906116de565b610c0d565b005b61030a60048036038101906103059190611589565b610f48565b60405161031791906115f4565b60405180910390f35b610328610f5d565b60405161033591906115c3565b60405180910390f35b610346610f82565b60405161035391906115f4565b60405180910390f35b61037660048036038101906103719190611589565b610f88565b005b610392600480360381019061038d9190611589565b6110a0565b005b6103ae60048036038101906103a99190611589565b611124565b005b6103b861123c565b5f73ffffffffffffffffffffffffffffffffffffffff168173ffffffffffffffffffffffffffffffffffffffff1603610426576040517f08c379a000000000000000000000000000000000000000000000000000000000815260040161041d906118f9565b60405180910390fd5b5f60075f9054906101000a900473ffffffffffffffffffffffffffffffffffffffff1690508160075f6101000a81548173ffffffffffffffffffffffffffffffffffffffff021916908373ffffffffffffffffffffffffffffffffffffffff1602179055507f123507eb4acb0af759a5290afa2057d4ba8bead6f8ff3351158131c7eddcdc6c81836040516104bc929190611961565b60405180910390a15050565b60075f9054906101000a900473ffffffffffffffffffffffffffffffffffffffff1681565b5f60035f8373ffffffffffffffffffffffffffffffffffffffff1673ffffffffffffffffffffffffffffffffffffffff1681526020019081526020015f20549050919050565b600260019054906101000a900473ffffffffffffffffffffffffffffffffffffffff1681565b61056161123c565b6105696112c3565b565b5f60025f9054906101000a900460ff16905090565b61058861123c565b5f6005549050816005819055507f975c29b23d76721a552d63dd34cc2cd9a6bbde1eb10ca1459f771553f2cec9b781836040516105c692919061199b565b60405180910390a15050565b5f600260019054906101000a900473ffffffffffffffffffffffffffffffffffffffff1673ffffffffffffffffffffffffffffffffffffffff166370a08231306040518263ffffffff1660e01b815260040161062e91906115c3565b602060405180830381865afa158015610649573d5f5f3e3d5ffd5b505050506040513d601f19601f8201168201806040525081019061066d91906119d6565b905090565b61067a61123c565b6106835f611324565b565b61068d61123c565b6106956113e5565b565b60045481565b6106a5611447565b6106ad61148d565b6005548210156106f2576040517f08c379a00000000000000000000000000000000000000000000000000000000081526004016106e990611a4b565b60405180910390fd5b5f815111610735576040517f08c379a000000000000000000000000000000000000000000000000000000000815260040161072c90611ab3565b60405180910390fd5b81600260019054906101000a900473ffffffffffffffffffffffffffffffffffffffff1673ffffffffffffffffffffffffffffffffffffffff1663dd62ed3e33306040518363ffffffff1660e01b8152600401610793929190611ad1565b602060405180830381865afa1580156107ae573d5f5f3e3d5ffd5b505050506040513d601f19601f820116820180604052508101906107d291906119d6565b1015610813576040517f08c379a000000000000000000000000000000000000000000000000000000000815260040161080a90611b42565b60405180910390fd5b5f600260019054906101000a900473ffffffffffffffffffffffffffffffffffffffff1673ffffffffffffffffffffffffffffffffffffffff166323b872dd3330866040518463ffffffff1660e01b815260040161087393929190611b60565b6020604051808303815f875af115801561088f573d5f5f3e3d5ffd5b505050506040513d601f19601f820116820180604052508101906108b39190611bbf565b9050806108f5576040517f08c379a00000000000000000000000000000000000000000000000000000000081526004016108ec90611c34565b60405180910390fd5b8260035f3373ffffffffffffffffffffffffffffffffffffffff1673ffffffffffffffffffffffffffffffffffffffff1681526020019081526020015f205f8282546109419190611c7f565b925050819055508260045f8282546109599190611c7f565b925050819055503373ffffffffffffffffffffffffffffffffffffffff167ff041a5bfea1be2e3f78bbadfadc66bb6f6d62860e629a44d71bec1ef49411c9e8442856040516109aa93929190611d02565b60405180910390a2506109bb6114ce565b5050565b5f5f5f9054906101000a900473ffffffffffffffffffffffffffffffffffffffff16905090565b6109ee61123c565b5f73ffffffffffffffffffffffffffffffffffffffff168173ffffffffffffffffffffffffffffffffffffffff1603610a5c576040517f08c379a0000000000000000000000000000000000000000000000000000000008152600401610a5390611d88565b60405180910390fd5b5f8190505f8173ffffffffffffffffffffffffffffffffffffffff166370a08231306040518263ffffffff1660e01b8152600401610a9a91906115c3565b602060405180830381865afa158015610ab5573d5f5f3e3d5ffd5b505050506040513d601f19601f82011682018060405250810190610ad991906119d6565b90505f8111610b1d576040517f08c379a0000000000000000000000000000000000000000000000000000000008152600401610b1490611df0565b60405180910390fd5b5f8273ffffffffffffffffffffffffffffffffffffffff1663a9059cbb610b426109bf565b846040518363ffffffff1660e01b8152600401610b60929190611e0e565b6020604051808303815f875af1158015610b7c573d5f5f3e3d5ffd5b505050506040513d601f19601f82011682018060405250810190610ba09190611bbf565b905080610be2576040517f08c379a0000000000000000000000000000000000000000000000000000000008152600401610bd990611e7f565b60405180910390fd5b50505050565b60065f9054906101000a900473ffffffffffffffffffffffffffffffffffffffff1681565b610c1561123c565b610c1d611447565b5f73ffffffffffffffffffffffffffffffffffffffff1660065f9054906101000a900473ffffffffffffffffffffffffffffffffffffffff1673ffffffffffffffffffffffffffffffffffffffff1603610cac576040517f08c379a0000000000000000000000000000000000000000000000000000000008152600401610ca390611ee7565b60405180910390fd5b5f8111610cee576040517f08c379a0000000000000000000000000000000000000000000000000000000008152600401610ce590611f4f565b60405180910390fd5b600260019054906101000a900473ffffffffffffffffffffffffffffffffffffffff1673ffffffffffffffffffffffffffffffffffffffff166370a08231306040518263ffffffff1660e01b8152600401610d4991906115c3565b602060405180830381865afa158015610d64573d5f5f3e3d5ffd5b505050506040513d601f19601f82011682018060405250810190610d8891906119d6565b811115610dca576040517f08c379a0000000000000000000000000000000000000000000000000000000008152600401610dc190611fb7565b60405180910390fd5b5f600260019054906101000a900473ffffffffffffffffffffffffffffffffffffffff1673ffffffffffffffffffffffffffffffffffffffff1663a9059cbb60065f9054906101000a900473ffffffffffffffffffffffffffffffffffffffff16846040518363ffffffff1660e01b8152600401610e49929190611e0e565b6020604051808303815f875af1158015610e65573d5f5f3e3d5ffd5b505050506040513d601f19601f82011682018060405250810190610e899190611bbf565b905080610ecb576040517f08c379a0000000000000000000000000000000000000000000000000000000008152600401610ec290611c34565b60405180910390fd5b60065f9054906101000a900473ffffffffffffffffffffffffffffffffffffffff1673ffffffffffffffffffffffffffffffffffffffff167f219e38014d0e72b05ead8a8d0258ebea4be20d0c2c1de6c08974a08a6c917f6b8342604051610f3492919061199b565b60405180910390a250610f456114ce565b50565b6003602052805f5260405f205f915090505481565b60085f9054906101000a900473ffffffffffffffffffffffffffffffffffffffff1681565b60055481565b610f9061123c565b5f73ffffffffffffffffffffffffffffffffffffffff168173ffffffffffffffffffffffffffffffffffffffff1603610ffe576040517f08c379a0000000000000000000000000000000000000000000000000000000008152600401610ff5906118f9565b60405180910390fd5b5f60085f9054906101000a900473ffffffffffffffffffffffffffffffffffffffff1690508160085f6101000a81548173ffffffffffffffffffffffffffffffffffffffff021916908373ffffffffffffffffffffffffffffffffffffffff1602179055507f123507eb4acb0af759a5290afa2057d4ba8bead6f8ff3351158131c7eddcdc6c818360405161109492919061201f565b60405180910390a15050565b6110a861123c565b5f73ffffffffffffffffffffffffffffffffffffffff168173ffffffffffffffffffffffffffffffffffffffff1603611118575f6040517f1e4fbdf700000000000000000000000000000000000000000000000000000000815260040161110f91906115c3565b60405180910390fd5b61112181611324565b50565b61112c61123c565b5f73ffffffffffffffffffffffffffffffffffffffff168173ffffffffffffffffffffffffffffffffffffffff160361119a576040517f08c379a0000000000000000000000000000000000000000000000000000000008152600401611191906118f9565b60405180910390fd5b5f60065f9054906101000a900473ffffffffffffffffffffffffffffffffffffffff1690508160065f6101000a81548173ffffffffffffffffffffffffffffffffffffffff021916908373ffffffffffffffffffffffffffffffffffffffff1602179055507f123507eb4acb0af759a5290afa2057d4ba8bead6f8ff3351158131c7eddcdc6c81836040516112309291906120a3565b60405180910390a15050565b6112446114d7565b73ffffffffffffffffffffffffffffffffffffffff166112626109bf565b73ffffffffffffffffffffffffffffffffffffffff16146112c1576112856114d7565b6040517f118cdaa70000000000000000000000000000000000000000000000000000000081526004016112b891906115c3565b60405180910390fd5b565b6112cb6114de565b5f60025f6101000a81548160ff0219169083151502179055507f5db9ee0a495bf2e6ff9c91a7834c1ba4fdd244a5e8aa4e537bd38aeae4b073aa61130d6114d7565b60405161131a91906115c3565b60405180910390a1565b5f5f5f9054906101000a900473ffffffffffffffffffffffffffffffffffffffff169050815f5f6101000a81548173ffffffffffffffffffffffffffffffffffffffff021916908373ffffffffffffffffffffffffffffffffffffffff1602179055508173ffffffffffffffffffffffffffffffffffffffff168173ffffffffffffffffffffffffffffffffffffffff167f8be0079c531659141344cd1fd0a4f28419497f9722a3daafe3b4186f6b6457e060405160405180910390a35050565b6113ed61148d565b600160025f6101000a81548160ff0219169083151502179055507f62e78cea01bee320cd4e420270b5ea74000d11b0c9f74754ebdbfc544b05a2586114306114d7565b60405161143d91906115c3565b60405180910390a1565b600260015403611483576040517f3ee5aeb500000000000000000000000000000000000000000000000000000000815260040160405180910390fd5b6002600181905550565b61149561056b565b156114cc576040517fd93c066500000000000000000000000000000000000000000000000000000000815260040160405180910390fd5b565b60018081905550565b5f33905090565b6114e661056b565b61151c576040517f8dfc202b00000000000000000000000000000000000000000000000000000000815260040160405180910390fd5b565b5f604051905090565b5f5ffd5b5f5ffd5b5f73ffffffffffffffffffffffffffffffffffffffff82169050919050565b5f6115588261152f565b9050919050565b6115688161154e565b8114611572575f5ffd5b50565b5f813590506115838161155f565b92915050565b5f6020828403121561159e5761159d611527565b5b5f6115ab84828501611575565b91505092915050565b6115bd8161154e565b82525050565b5f6020820190506115d65f8301846115b4565b92915050565b5f819050919050565b6115ee816115dc565b82525050565b5f6020820190506116075f8301846115e5565b92915050565b5f819050919050565b5f61163061162b6116268461152f565b61160d565b61152f565b9050919050565b5f61164182611616565b9050919050565b5f61165282611637565b9050919050565b61166281611648565b82525050565b5f60208201905061167b5f830184611659565b92915050565b5f8115159050919050565b61169581611681565b82525050565b5f6020820190506116ae5f83018461168c565b92915050565b6116bd816115dc565b81146116c7575f5ffd5b50565b5f813590506116d8816116b4565b92915050565b5f602082840312156116f3576116f2611527565b5b5f611700848285016116ca565b91505092915050565b5f5ffd5b5f5ffd5b5f601f19601f8301169050919050565b7f4e487b71000000000000000000000000000000000000000000000000000000005f52604160045260245ffd5b61175782611711565b810181811067ffffffffffffffff8211171561177657611775611721565b5b80604052505050565b5f61178861151e565b9050611794828261174e565b919050565b5f67ffffffffffffffff8211156117b3576117b2611721565b5b6117bc82611711565b9050602081019050919050565b828183375f83830152505050565b5f6117e96117e484611799565b61177f565b9050828152602081018484840111156118055761180461170d565b5b6118108482856117c9565b509392505050565b5f82601f83011261182c5761182b611709565b5b813561183c8482602086016117d7565b91505092915050565b5f5f6040838503121561185b5761185a611527565b5b5f611868858286016116ca565b925050602083013567ffffffffffffffff8111156118895761188861152b565b5b61189585828601611818565b9150509250929050565b5f82825260208201905092915050565b7f496e76616c6964206164647265737300000000000000000000000000000000005f82015250565b5f6118e3600f8361189f565b91506118ee826118af565b602082019050919050565b5f6020820190508181035f830152611910816118d7565b9050919050565b7f50726f6f6653746f7261676500000000000000000000000000000000000000005f82015250565b5f61194b600c8361189f565b915061195682611917565b602082019050919050565b5f6060820190508181035f8301526119788161193f565b905061198760208301856115b4565b61199460408301846115b4565b9392505050565b5f6040820190506119ae5f8301856115e5565b6119bb60208301846115e5565b9392505050565b5f815190506119d0816116b4565b92915050565b5f602082840312156119eb576119ea611527565b5b5f6119f8848285016119c2565b91505092915050565b7f446f6e6174696f6e2062656c6f77206d696e696d756d20616d6f756e740000005f82015250565b5f611a35601d8361189f565b9150611a4082611a01565b602082019050919050565b5f6020820190508181035f830152611a6281611a29565b9050919050565b7f43616d706169676e2049442072657175697265640000000000000000000000005f82015250565b5f611a9d60148361189f565b9150611aa882611a69565b602082019050919050565b5f6020820190508181035f830152611aca81611a91565b9050919050565b5f604082019050611ae45f8301856115b4565b611af160208301846115b4565b9392505050565b7f496e73756666696369656e7420616c6c6f77616e6365000000000000000000005f82015250565b5f611b2c60168361189f565b9150611b3782611af8565b602082019050919050565b5f6020820190508181035f830152611b5981611b20565b9050919050565b5f606082019050611b735f8301866115b4565b611b8060208301856115b4565b611b8d60408301846115e5565b949350505050565b611b9e81611681565b8114611ba8575f5ffd5b50565b5f81519050611bb981611b95565b92915050565b5f60208284031215611bd457611bd3611527565b5b5f611be184828501611bab565b91505092915050565b7f5472616e73666572206661696c656400000000000000000000000000000000005f82015250565b5f611c1e600f8361189f565b9150611c2982611bea565b602082019050919050565b5f6020820190508181035f830152611c4b81611c12565b9050919050565b7f4e487b71000000000000000000000000000000000000000000000000000000005f52601160045260245ffd5b5f611c89826115dc565b9150611c94836115dc565b9250828201905080821115611cac57611cab611c52565b5b92915050565b5f81519050919050565b8281835e5f83830152505050565b5f611cd482611cb2565b611cde818561189f565b9350611cee818560208601611cbc565b611cf781611711565b840191505092915050565b5f606082019050611d155f8301866115e5565b611d2260208301856115e5565b8181036040830152611d348184611cca565b9050949350505050565b7f496e76616c696420746f6b656e206164647265737300000000000000000000005f82015250565b5f611d7260158361189f565b9150611d7d82611d3e565b602082019050919050565b5f6020820190508181035f830152611d9f81611d66565b9050919050565b7f4e6f20746f6b656e7320746f207265636f7665720000000000000000000000005f82015250565b5f611dda60148361189f565b9150611de582611da6565b602082019050919050565b5f6020820190508181035f830152611e0781611dce565b9050919050565b5f604082019050611e215f8301856115b4565b611e2e60208301846115e5565b9392505050565b7f5265636f76657279206661696c656400000000000000000000000000000000005f82015250565b5f611e69600f8361189f565b9150611e7482611e35565b602082019050919050565b5f6020820190508181035f830152611e9681611e5d565b9050919050565b7f4469737472696275746f72206e6f7420736574000000000000000000000000005f82015250565b5f611ed160138361189f565b9150611edc82611e9d565b602082019050919050565b5f6020820190508181035f830152611efe81611ec5565b9050919050565b7f416d6f756e74206d7573742062652067726561746572207468616e207a65726f5f82015250565b5f611f3960208361189f565b9150611f4482611f05565b602082019050919050565b5f6020820190508181035f830152611f6681611f2d565b9050919050565b7f496e73756666696369656e742062616c616e63650000000000000000000000005f82015250565b5f611fa160148361189f565b9150611fac82611f6d565b602082019050919050565b5f6020820190508181035f830152611fce81611f95565b9050919050565b7f43616d706169676e4d616e6167657200000000000000000000000000000000005f82015250565b5f612009600f8361189f565b915061201482611fd5565b602082019050919050565b5f6060820190508181035f83015261203681611ffd565b905061204560208301856115b4565b61205260408301846115b4565b9392505050565b7f46756e644469737472696275746f7200000000000000000000000000000000005f82015250565b5f61208d600f8361189f565b915061209882612059565b602082019050919050565b5f6060820190508181035f8301526120ba81612081565b90506120c960208301856115b4565b6120d660408301846115b4565b939250505056fea264697066735822122009c9635c851b7f0505663f2a6dac64dc68dc981aa491f350855ad8244bf5f85664736f6c634300081c0033","linkReferences":{}},"methodIdentifiers":{"campaignManagerContract()":"cf43b375","donate(uint256,string)":"8d59d1f1","donations(address)":"cc6cb19a","fundDistributorContract()":"a0d5bcb5","getContractBalance()":"6f9fb98a","getDonationByDonor(address)":"0f8c5340","minDonationAmount()":"cf4ef9c7","owner()":"8da5cb5b","pause()":"8456cb59","paused()":"5c975abb","proofStorageContract()":"06d92800","recoverToken(address)":"9be65a60","renounceOwnership()":"715018a6","setCampaignManagerContract(address)":"e9521b28","setFundDistributorContract(address)":"fa3c2fc0","setMinDonationAmount(uint256)":"6eca7256","setProofStorageContract(address)":"03deec2f","totalDonationsReceived()":"862e2fc8","transferOwnership(address)":"f2fde38b","transferToDistributor(uint256)":"b5e24b94","unpause()":"3f4ba83a","usdt()":"2f48ab7d"},"id":23}