{"abi":[{"type":"constructor","inputs":[{"name":"_campaignManager","type":"address","internalType":"address"},{"name":"_donationManager","type":"address","internalType":"address"},{"name":"_proofStorage","type":"address","internalType":"address"},{"name":"_usdtToken","type":"address","internalType":"address"}],"stateMutability":"nonpayable"},{"type":"function","name":"approveProofAndReleaseFunds","inputs":[{"name":"_proofId","type":"bytes32","internalType":"bytes32"}],"outputs":[],"stateMutability":"nonpayable"},{"type":"function","name":"campaignManager","inputs":[],"outputs":[{"name":"","type":"address","internalType":"contract CampaignManager"}],"stateMutability":"view"},{"type":"function","name":"donationManager","inputs":[],"outputs":[{"name":"","type":"address","internalType":"contract DonationManager"}],"stateMutability":"view"},{"type":"function","name":"fundReleaseHistory","inputs":[{"name":"","type":"uint256","internalType":"uint256"},{"name":"","type":"uint256","internalType":"uint256"}],"outputs":[{"name":"campaignId","type":"uint256","internalType":"uint256"},{"name":"proofId","type":"bytes32","internalType":"bytes32"},{"name":"amount","type":"uint256","internalType":"uint256"},{"name":"timestamp","type":"uint256","internalType":"uint256"}],"stateMutability":"view"},{"type":"function","name":"getAvailableFunds","inputs":[{"name":"_campaignId","type":"uint256","internalType":"uint256"}],"outputs":[{"name":"","type":"uint256","internalType":"uint256"}],"stateMutability":"view"},{"type":"function","name":"getFundReleaseHistory","inputs":[{"name":"_campaignId","type":"uint256","internalType":"uint256"}],"outputs":[{"name":"","type":"tuple[]","internalType":"struct FundReleaseManager.FundRelease[]","components":[{"name":"campaignId","type":"uint256","internalType":"uint256"},{"name":"proofId","type":"bytes32","internalType":"bytes32"},{"name":"amount","type":"uint256","internalType":"uint256"},{"name":"timestamp","type":"uint256","internalType":"uint256"}]}],"stateMutability":"view"},{"type":"function","name":"getTotalReleasedFunds","inputs":[{"name":"_campaignId","type":"uint256","internalType":"uint256"}],"outputs":[{"name":"","type":"uint256","internalType":"uint256"}],"stateMutability":"view"},{"type":"function","name":"hasReachedFirstMilestone","inputs":[{"name":"_campaignId","type":"uint256","internalType":"uint256"}],"outputs":[{"name":"","type":"bool","internalType":"bool"}],"stateMutability":"view"},{"type":"function","name":"hasReachedFullFunding","inputs":[{"name":"_campaignId","type":"uint256","internalType":"uint256"}],"outputs":[{"name":"","type":"bool","internalType":"bool"}],"stateMutability":"view"},{"type":"function","name":"owner","inputs":[],"outputs":[{"name":"","type":"address","internalType":"address"}],"stateMutability":"view"},{"type":"function","name":"proofProcessed","inputs":[{"name":"","type":"bytes32","internalType":"bytes32"}],"outputs":[{"name":"","type":"bool","internalType":"bool"}],"stateMutability":"view"},{"type":"function","name":"proofStorage","inputs":[],"outputs":[{"name":"","type":"address","internalType":"contract ProofStorage"}],"stateMutability":"view"},{"type":"function","name":"rejectProof","inputs":[{"name":"_proofId","type":"bytes32","internalType":"bytes32"},{"name":"_reason","type":"string","internalType":"string"}],"outputs":[],"stateMutability":"nonpayable"},{"type":"function","name":"releasedFunds","inputs":[{"name":"","type":"uint256","internalType":"uint256"}],"outputs":[{"name":"","type":"uint256","internalType":"uint256"}],"stateMutability":"view"},{"type":"function","name":"renounceOwnership","inputs":[],"outputs":[],"stateMutability":"nonpayable"},{"type":"function","name":"transferOwnership","inputs":[{"name":"newOwner","type":"address","internalType":"address"}],"outputs":[],"stateMutability":"nonpayable"},{"type":"function","name":"usdtToken","inputs":[],"outputs":[{"name":"","type":"address","internalType":"contract IERC20"}],"stateMutability":"view"},{"type":"event","name":"FundsReleased","inputs":[{"name":"campaignId","type":"uint256","indexed":true,"internalType":"uint256"},{"name":"proofId","type":"bytes32","indexed":true,"internalType":"bytes32"},{"name":"ngo","type":"address","indexed":false,"internalType":"address"},{"name":"amount","type":"uint256","indexed":false,"internalType":"uint256"}],"anonymous":false},{"type":"event","name":"OwnershipTransferred","inputs":[{"name":"previousOwner","type":"address","indexed":true,"internalType":"address"},{"name":"newOwner","type":"address","indexed":true,"internalType":"address"}],"anonymous":false},{"type":"event","name":"ProofRejected","inputs":[{"name":"campaignId","type":"uint256","indexed":true,"internalType":"uint256"},{"name":"proofId","type":"bytes32","indexed":true,"internalType":"bytes32"},{"name":"reason","type":"string","indexed":false,"internalType":"string"}],"anonymous":false},{"type":"error","name":"OwnableInvalidOwner","inputs":[{"name":"owner","type":"address","internalType":"address"}]},{"type":"error","name":"OwnableUnauthorizedAccount","inputs":[{"name":"account","type":"address","internalType":"address"}]},{"type":"error","name":"ReentrancyGuardReentrantCall","inputs":[]},{"type":"error","name":"SafeERC20FailedOperation","inputs":[{"name":"token","type":"address","internalType":"address"}]}],"bytecode":{"object":"0x608060405234801561000f575f5ffd5b50604051612bff380380612bff833981810160405281019061003191906102e1565b335f73ffffffffffffffffffffffffffffffffffffffff168173ffffffffffffffffffffffffffffffffffffffff16036100a2575f6040517f1e4fbdf70000000000000000000000000000000000000000000000000000000081526004016100999190610354565b60405180910390fd5b6100b1816101c260201b60201c565b50600180819055508360025f6101000a81548173ffffffffffffffffffffffffffffffffffffffff021916908373ffffffffffffffffffffffffffffffffffffffff1602179055508260035f6101000a81548173ffffffffffffffffffffffffffffffffffffffff021916908373ffffffffffffffffffffffffffffffffffffffff1602179055508160045f6101000a81548173ffffffffffffffffffffffffffffffffffffffff021916908373ffffffffffffffffffffffffffffffffffffffff1602179055508060055f6101000a81548173ffffffffffffffffffffffffffffffffffffffff021916908373ffffffffffffffffffffffffffffffffffffffff1602179055505050505061036d565b5f5f5f9054906101000a900473ffffffffffffffffffffffffffffffffffffffff169050815f5f6101000a81548173ffffffffffffffffffffffffffffffffffffffff021916908373ffffffffffffffffffffffffffffffffffffffff1602179055508173ffffffffffffffffffffffffffffffffffffffff168173ffffffffffffffffffffffffffffffffffffffff167f8be0079c531659141344cd1fd0a4f28419497f9722a3daafe3b4186f6b6457e060405160405180910390a35050565b5f5ffd5b5f73ffffffffffffffffffffffffffffffffffffffff82169050919050565b5f6102b082610287565b9050919050565b6102c0816102a6565b81146102ca575f5ffd5b50565b5f815190506102db816102b7565b92915050565b5f5f5f5f608085870312156102f9576102f8610283565b5b5f610306878288016102cd565b9450506020610317878288016102cd565b9350506040610328878288016102cd565b9250506060610339878288016102cd565b91505092959194509250565b61034e816102a6565b82525050565b5f6020820190506103675f830184610345565b92915050565b6128858061037a5f395ff3fe608060405234801561000f575f5ffd5b5060043610610109575f3560e01c8063a98ad46c116100a0578063c94635641161006f578063c9463564146102ba578063f0aa8970146102ea578063f2fde38b1461031a578063f5e3f9e514610336578063fb5e76e61461036657610109565b8063a98ad46c14610232578063aedcb72f14610250578063b1f126be1461026e578063c14eff971461028a57610109565b8063715018a6116100dc578063715018a6146101d057806376b86c8b146101da5780637cb575da146101f85780638da5cb5b1461021457610109565b80630162cd8e1461010d578063020d33ca1461013d57806307b82c92146101705780636dc41821146101a0575b5f5ffd5b61012760048036038101906101229190611bf3565b610384565b6040516101349190611c2d565b60405180910390f35b61015760048036038101906101529190611c46565b610399565b6040516101679493929190611c9c565b60405180910390f35b61018a60048036038101906101859190611bf3565b6103df565b6040516101979190611c2d565b60405180910390f35b6101ba60048036038101906101b59190611bf3565b6103f9565b6040516101c79190611cf9565b60405180910390f35b6101d861053f565b005b6101e2610552565b6040516101ef9190611d8c565b60405180910390f35b610212600480360381019061020d9190611f0b565b610577565b005b61021c610a33565b6040516102299190611f85565b60405180910390f35b61023a610a5a565b6040516102479190611fbe565b60405180910390f35b610258610a7f565b6040516102659190611ff7565b60405180910390f35b61028860048036038101906102839190612010565b610aa4565b005b6102a4600480360381019061029f9190611bf3565b611586565b6040516102b19190611c2d565b60405180910390f35b6102d460048036038101906102cf9190611bf3565b611648565b6040516102e19190612154565b60405180910390f35b61030460048036038101906102ff9190612010565b6116dc565b6040516103119190611cf9565b60405180910390f35b610334600480360381019061032f919061219e565b6116f9565b005b610350600480360381019061034b9190611bf3565b61177d565b60405161035d9190611cf9565b60405180910390f35b61036e6118cf565b60405161037b91906121e9565b60405180910390f35b6006602052805f5260405f205f915090505481565b6007602052815f5260405f2081815481106103b2575f80fd5b905f5260205f2090600402015f9150915050805f0154908060010154908060020154908060030154905084565b5f60065f8381526020019081526020015f20549050919050565b5f5f60035f9054906101000a900473ffffffffffffffffffffffffffffffffffffffff1673ffffffffffffffffffffffffffffffffffffffff1663129106e5846040518263ffffffff1660e01b81526004016104559190611c2d565b602060405180830381865afa158015610470573d5f5f3e3d5ffd5b505050506040513d601f19601f820116820180604052508101906104949190612216565b90505f60025f9054906101000a900473ffffffffffffffffffffffffffffffffffffffff1673ffffffffffffffffffffffffffffffffffffffff1663367d4fda856040518263ffffffff1660e01b81526004016104f19190611c2d565b602060405180830381865afa15801561050c573d5f5f3e3d5ffd5b505050506040513d601f19601f820116820180604052508101906105309190612216565b90508082101592505050919050565b6105476118f4565b6105505f61197b565b565b60045f9054906101000a900473ffffffffffffffffffffffffffffffffffffffff1681565b60045f9054906101000a900473ffffffffffffffffffffffffffffffffffffffff1673ffffffffffffffffffffffffffffffffffffffff1663d938d202836040518263ffffffff1660e01b81526004016105d19190612241565b602060405180830381865afa1580156105ec573d5f5f3e3d5ffd5b505050506040513d601f19601f820116820180604052508101906106109190612284565b61064f576040517f08c379a000000000000000000000000000000000000000000000000000000000815260040161064690612309565b60405180910390fd5b60045f9054906101000a900473ffffffffffffffffffffffffffffffffffffffff1673ffffffffffffffffffffffffffffffffffffffff166360b4ac2b6040518163ffffffff1660e01b8152600401602060405180830381865afa1580156106b9573d5f5f3e3d5ffd5b505050506040513d601f19601f820116820180604052508101906106dd919061235d565b60ff1660045f9054906101000a900473ffffffffffffffffffffffffffffffffffffffff1673ffffffffffffffffffffffffffffffffffffffff16633cced748846040518263ffffffff1660e01b815260040161073a9190612241565b602060405180830381865afa158015610755573d5f5f3e3d5ffd5b505050506040513d601f19601f82011682018060405250810190610779919061235d565b60ff16146107bc576040517f08c379a00000000000000000000000000000000000000000000000000000000081526004016107b3906123d2565b60405180910390fd5b60085f8381526020019081526020015f205f9054906101000a900460ff161561081a576040517f08c379a00000000000000000000000000000000000000000000000000000000081526004016108119061243a565b60405180910390fd5b5f60045f9054906101000a900473ffffffffffffffffffffffffffffffffffffffff1673ffffffffffffffffffffffffffffffffffffffff1663fef2d39a846040518263ffffffff1660e01b81526004016108759190612241565b602060405180830381865afa158015610890573d5f5f3e3d5ffd5b505050506040513d601f19601f820116820180604052508101906108b49190612216565b905060045f9054906101000a900473ffffffffffffffffffffffffffffffffffffffff1673ffffffffffffffffffffffffffffffffffffffff16631663c19f8460045f9054906101000a900473ffffffffffffffffffffffffffffffffffffffff1673ffffffffffffffffffffffffffffffffffffffff16634c1253d76040518163ffffffff1660e01b8152600401602060405180830381865afa15801561095e573d5f5f3e3d5ffd5b505050506040513d601f19601f82011682018060405250810190610982919061235d565b6040518363ffffffff1660e01b815260040161099f929190612467565b5f604051808303815f87803b1580156109b6575f5ffd5b505af11580156109c8573d5f5f3e3d5ffd5b50505050600160085f8581526020019081526020015f205f6101000a81548160ff02191690831515021790555082817fed1c62897d84a232bf05fb71b53463afedb7a0cfeb34405cacfe32ef8a63aec384604051610a2691906124de565b60405180910390a3505050565b5f5f5f9054906101000a900473ffffffffffffffffffffffffffffffffffffffff16905090565b60055f9054906101000a900473ffffffffffffffffffffffffffffffffffffffff1681565b60035f9054906101000a900473ffffffffffffffffffffffffffffffffffffffff1681565b610aac611a3c565b60045f9054906101000a900473ffffffffffffffffffffffffffffffffffffffff1673ffffffffffffffffffffffffffffffffffffffff1663d938d202826040518263ffffffff1660e01b8152600401610b069190612241565b602060405180830381865afa158015610b21573d5f5f3e3d5ffd5b505050506040513d601f19601f82011682018060405250810190610b459190612284565b610b84576040517f08c379a0000000000000000000000000000000000000000000000000000000008152600401610b7b90612309565b60405180910390fd5b60045f9054906101000a900473ffffffffffffffffffffffffffffffffffffffff1673ffffffffffffffffffffffffffffffffffffffff166360b4ac2b6040518163ffffffff1660e01b8152600401602060405180830381865afa158015610bee573d5f5f3e3d5ffd5b505050506040513d601f19601f82011682018060405250810190610c12919061235d565b60ff1660045f9054906101000a900473ffffffffffffffffffffffffffffffffffffffff1673ffffffffffffffffffffffffffffffffffffffff16633cced748836040518263ffffffff1660e01b8152600401610c6f9190612241565b602060405180830381865afa158015610c8a573d5f5f3e3d5ffd5b505050506040513d601f19601f82011682018060405250810190610cae919061235d565b60ff1614610cf1576040517f08c379a0000000000000000000000000000000000000000000000000000000008152600401610ce8906123d2565b60405180910390fd5b60085f8281526020019081526020015f205f9054906101000a900460ff1615610d4f576040517f08c379a0000000000000000000000000000000000000000000000000000000008152600401610d469061243a565b60405180910390fd5b5f60045f9054906101000a900473ffffffffffffffffffffffffffffffffffffffff1673ffffffffffffffffffffffffffffffffffffffff1663fef2d39a836040518263ffffffff1660e01b8152600401610daa9190612241565b602060405180830381865afa158015610dc5573d5f5f3e3d5ffd5b505050506040513d601f19601f82011682018060405250810190610de99190612216565b90505f60045f9054906101000a900473ffffffffffffffffffffffffffffffffffffffff1673ffffffffffffffffffffffffffffffffffffffff16636447313e846040518263ffffffff1660e01b8152600401610e469190612241565b602060405180830381865afa158015610e61573d5f5f3e3d5ffd5b505050506040513d601f19601f82011682018060405250810190610e859190612216565b905060025f9054906101000a900473ffffffffffffffffffffffffffffffffffffffff1673ffffffffffffffffffffffffffffffffffffffff16633b594a68836040518263ffffffff1660e01b8152600401610ee19190611c2d565b602060405180830381865afa158015610efc573d5f5f3e3d5ffd5b505050506040513d601f19601f82011682018060405250810190610f209190612284565b610f5f576040517f08c379a0000000000000000000000000000000000000000000000000000000008152600401610f5690612548565b60405180910390fd5b5f60025f9054906101000a900473ffffffffffffffffffffffffffffffffffffffff1673ffffffffffffffffffffffffffffffffffffffff1663e5d9140e846040518263ffffffff1660e01b8152600401610fba9190611c2d565b602060405180830381865afa158015610fd5573d5f5f3e3d5ffd5b505050506040513d601f19601f82011682018060405250810190610ff9919061257a565b90505f60035f9054906101000a900473ffffffffffffffffffffffffffffffffffffffff1673ffffffffffffffffffffffffffffffffffffffff1663129106e5856040518263ffffffff1660e01b81526004016110569190611c2d565b602060405180830381865afa158015611071573d5f5f3e3d5ffd5b505050506040513d601f19601f820116820180604052508101906110959190612216565b90505f73ffffffffffffffffffffffffffffffffffffffff168273ffffffffffffffffffffffffffffffffffffffff1603611105576040517f08c379a00000000000000000000000000000000000000000000000000000000081526004016110fc906125ef565b60405180910390fd5b5f60065f8681526020019081526020015f205482611123919061263a565b905083811015611168576040517f08c379a000000000000000000000000000000000000000000000000000000000815260040161115f906126b7565b60405180910390fd5b5f60065f8781526020019081526020015f2054036111d05760028261118d9190612702565b8411156111cf576040517f08c379a00000000000000000000000000000000000000000000000000000000081526004016111c6906127a2565b60405180910390fd5b5b60045f9054906101000a900473ffffffffffffffffffffffffffffffffffffffff1673ffffffffffffffffffffffffffffffffffffffff16631663c19f8760045f9054906101000a900473ffffffffffffffffffffffffffffffffffffffff1673ffffffffffffffffffffffffffffffffffffffff166333e736c66040518163ffffffff1660e01b8152600401602060405180830381865afa158015611278573d5f5f3e3d5ffd5b505050506040513d601f19601f8201168201806040525081019061129c919061235d565b6040518363ffffffff1660e01b81526004016112b9929190612467565b5f604051808303815f87803b1580156112d0575f5ffd5b505af11580156112e2573d5f5f3e3d5ffd5b5050505061135560035f9054906101000a900473ffffffffffffffffffffffffffffffffffffffff16848660055f9054906101000a900473ffffffffffffffffffffffffffffffffffffffff1673ffffffffffffffffffffffffffffffffffffffff16611a82909392919063ffffffff16565b8360065f8781526020019081526020015f205f82825461137591906127c0565b92505081905550600160085f8881526020019081526020015f205f6101000a81548160ff02191690831515021790555060075f8681526020019081526020015f20604051806080016040528087815260200188815260200186815260200142815250908060018154018082558091505060019003905f5260205f2090600402015f909190919091505f820151815f0155602082015181600101556040820151816002015560608201518160030155505060045f9054906101000a900473ffffffffffffffffffffffffffffffffffffffff1673ffffffffffffffffffffffffffffffffffffffff16631663c19f8760045f9054906101000a900473ffffffffffffffffffffffffffffffffffffffff1673ffffffffffffffffffffffffffffffffffffffff166382fe5dbf6040518163ffffffff1660e01b8152600401602060405180830381865afa1580156114cd573d5f5f3e3d5ffd5b505050506040513d601f19601f820116820180604052508101906114f1919061235d565b6040518363ffffffff1660e01b815260040161150e929190612467565b5f604051808303815f87803b158015611525575f5ffd5b505af1158015611537573d5f5f3e3d5ffd5b5050505085857f7a1edbfe9d5b85137f91700ad63d1d2566b8638c43b976c154cbcae1300e9b8d858760405161156e9291906127f3565b60405180910390a35050505050611583611b04565b50565b5f5f60035f9054906101000a900473ffffffffffffffffffffffffffffffffffffffff1673ffffffffffffffffffffffffffffffffffffffff1663129106e5846040518263ffffffff1660e01b81526004016115e29190611c2d565b602060405180830381865afa1580156115fd573d5f5f3e3d5ffd5b505050506040513d601f19601f820116820180604052508101906116219190612216565b905060065f8481526020019081526020015f205481611640919061263a565b915050919050565b606060075f8381526020019081526020015f20805480602002602001604051908101604052809291908181526020015f905b828210156116d1578382905f5260205f2090600402016040518060800160405290815f820154815260200160018201548152602001600282015481526020016003820154815250508152602001906001019061167a565b505050509050919050565b6008602052805f5260405f205f915054906101000a900460ff1681565b6117016118f4565b5f73ffffffffffffffffffffffffffffffffffffffff168173ffffffffffffffffffffffffffffffffffffffff1603611771575f6040517f1e4fbdf70000000000000000000000000000000000000000000000000000000081526004016117689190611f85565b60405180910390fd5b61177a8161197b565b50565b5f5f60035f9054906101000a900473ffffffffffffffffffffffffffffffffffffffff1673ffffffffffffffffffffffffffffffffffffffff1663129106e5846040518263ffffffff1660e01b81526004016117d99190611c2d565b602060405180830381865afa1580156117f4573d5f5f3e3d5ffd5b505050506040513d601f19601f820116820180604052508101906118189190612216565b90505f60025f9054906101000a900473ffffffffffffffffffffffffffffffffffffffff1673ffffffffffffffffffffffffffffffffffffffff1663367d4fda856040518263ffffffff1660e01b81526004016118759190611c2d565b602060405180830381865afa158015611890573d5f5f3e3d5ffd5b505050506040513d601f19601f820116820180604052508101906118b49190612216565b90506002816118c39190612702565b82101592505050919050565b60025f9054906101000a900473ffffffffffffffffffffffffffffffffffffffff1681565b6118fc611b0d565b73ffffffffffffffffffffffffffffffffffffffff1661191a610a33565b73ffffffffffffffffffffffffffffffffffffffff16146119795761193d611b0d565b6040517f118cdaa70000000000000000000000000000000000000000000000000000000081526004016119709190611f85565b60405180910390fd5b565b5f5f5f9054906101000a900473ffffffffffffffffffffffffffffffffffffffff169050815f5f6101000a81548173ffffffffffffffffffffffffffffffffffffffff021916908373ffffffffffffffffffffffffffffffffffffffff1602179055508173ffffffffffffffffffffffffffffffffffffffff168173ffffffffffffffffffffffffffffffffffffffff167f8be0079c531659141344cd1fd0a4f28419497f9722a3daafe3b4186f6b6457e060405160405180910390a35050565b600260015403611a78576040517f3ee5aeb500000000000000000000000000000000000000000000000000000000815260040160405180910390fd5b6002600181905550565b611afe848573ffffffffffffffffffffffffffffffffffffffff166323b872dd868686604051602401611ab79392919061281a565b604051602081830303815290604052915060e01b6020820180517bffffffffffffffffffffffffffffffffffffffffffffffffffffffff8381831617835250505050611b14565b50505050565b60018081905550565b5f33905090565b5f5f60205f8451602086015f885af180611b33576040513d5f823e3d81fd5b3d92505f519150505f8214611b4c576001811415611b67565b5f8473ffffffffffffffffffffffffffffffffffffffff163b145b15611ba957836040517f5274afe7000000000000000000000000000000000000000000000000000000008152600401611ba09190611f85565b60405180910390fd5b50505050565b5f604051905090565b5f5ffd5b5f5ffd5b5f819050919050565b611bd281611bc0565b8114611bdc575f5ffd5b50565b5f81359050611bed81611bc9565b92915050565b5f60208284031215611c0857611c07611bb8565b5b5f611c1584828501611bdf565b91505092915050565b611c2781611bc0565b82525050565b5f602082019050611c405f830184611c1e565b92915050565b5f5f60408385031215611c5c57611c5b611bb8565b5b5f611c6985828601611bdf565b9250506020611c7a85828601611bdf565b9150509250929050565b5f819050919050565b611c9681611c84565b82525050565b5f608082019050611caf5f830187611c1e565b611cbc6020830186611c8d565b611cc96040830185611c1e565b611cd66060830184611c1e565b95945050505050565b5f8115159050919050565b611cf381611cdf565b82525050565b5f602082019050611d0c5f830184611cea565b92915050565b5f73ffffffffffffffffffffffffffffffffffffffff82169050919050565b5f819050919050565b5f611d54611d4f611d4a84611d12565b611d31565b611d12565b9050919050565b5f611d6582611d3a565b9050919050565b5f611d7682611d5b565b9050919050565b611d8681611d6c565b82525050565b5f602082019050611d9f5f830184611d7d565b92915050565b611dae81611c84565b8114611db8575f5ffd5b50565b5f81359050611dc981611da5565b92915050565b5f5ffd5b5f5ffd5b5f601f19601f8301169050919050565b7f4e487b71000000000000000000000000000000000000000000000000000000005f52604160045260245ffd5b611e1d82611dd7565b810181811067ffffffffffffffff82111715611e3c57611e3b611de7565b5b80604052505050565b5f611e4e611baf565b9050611e5a8282611e14565b919050565b5f67ffffffffffffffff821115611e7957611e78611de7565b5b611e8282611dd7565b9050602081019050919050565b828183375f83830152505050565b5f611eaf611eaa84611e5f565b611e45565b905082815260208101848484011115611ecb57611eca611dd3565b5b611ed6848285611e8f565b509392505050565b5f82601f830112611ef257611ef1611dcf565b5b8135611f02848260208601611e9d565b91505092915050565b5f5f60408385031215611f2157611f20611bb8565b5b5f611f2e85828601611dbb565b925050602083013567ffffffffffffffff811115611f4f57611f4e611bbc565b5b611f5b85828601611ede565b9150509250929050565b5f611f6f82611d12565b9050919050565b611f7f81611f65565b82525050565b5f602082019050611f985f830184611f76565b92915050565b5f611fa882611d5b565b9050919050565b611fb881611f9e565b82525050565b5f602082019050611fd15f830184611faf565b92915050565b5f611fe182611d5b565b9050919050565b611ff181611fd7565b82525050565b5f60208201905061200a5f830184611fe8565b92915050565b5f6020828403121561202557612024611bb8565b5b5f61203284828501611dbb565b91505092915050565b5f81519050919050565b5f82825260208201905092915050565b5f819050602082019050919050565b61206d81611bc0565b82525050565b61207c81611c84565b82525050565b608082015f8201516120965f850182612064565b5060208201516120a96020850182612073565b5060408201516120bc6040850182612064565b5060608201516120cf6060850182612064565b50505050565b5f6120e08383612082565b60808301905092915050565b5f602082019050919050565b5f6121028261203b565b61210c8185612045565b935061211783612055565b805f5b8381101561214757815161212e88826120d5565b9750612139836120ec565b92505060018101905061211a565b5085935050505092915050565b5f6020820190508181035f83015261216c81846120f8565b905092915050565b61217d81611f65565b8114612187575f5ffd5b50565b5f8135905061219881612174565b92915050565b5f602082840312156121b3576121b2611bb8565b5b5f6121c08482850161218a565b91505092915050565b5f6121d382611d5b565b9050919050565b6121e3816121c9565b82525050565b5f6020820190506121fc5f8301846121da565b92915050565b5f8151905061221081611bc9565b92915050565b5f6020828403121561222b5761222a611bb8565b5b5f61223884828501612202565b91505092915050565b5f6020820190506122545f830184611c8d565b92915050565b61226381611cdf565b811461226d575f5ffd5b50565b5f8151905061227e8161225a565b92915050565b5f6020828403121561229957612298611bb8565b5b5f6122a684828501612270565b91505092915050565b5f82825260208201905092915050565b7f50726f6f6620646f6573206e6f742065786973740000000000000000000000005f82015250565b5f6122f36014836122af565b91506122fe826122bf565b602082019050919050565b5f6020820190508181035f830152612320816122e7565b9050919050565b5f60ff82169050919050565b61233c81612327565b8114612346575f5ffd5b50565b5f8151905061235781612333565b92915050565b5f6020828403121561237257612371611bb8565b5b5f61237f84828501612349565b91505092915050565b7f50726f6f66206e6f7420696e207375626d6974746564207374617475730000005f82015250565b5f6123bc601d836122af565b91506123c782612388565b602082019050919050565b5f6020820190508181035f8301526123e9816123b0565b9050919050565b7f50726f6f6620616c72656164792070726f6365737365640000000000000000005f82015250565b5f6124246017836122af565b915061242f826123f0565b602082019050919050565b5f6020820190508181035f83015261245181612418565b9050919050565b61246181612327565b82525050565b5f60408201905061247a5f830185611c8d565b6124876020830184612458565b9392505050565b5f81519050919050565b8281835e5f83830152505050565b5f6124b08261248e565b6124ba81856122af565b93506124ca818560208601612498565b6124d381611dd7565b840191505092915050565b5f6020820190508181035f8301526124f681846124a6565b905092915050565b7f43616d706169676e20646f6573206e6f742065786973740000000000000000005f82015250565b5f6125326017836122af565b915061253d826124fe565b602082019050919050565b5f6020820190508181035f83015261255f81612526565b9050919050565b5f8151905061257481612174565b92915050565b5f6020828403121561258f5761258e611bb8565b5b5f61259c84828501612566565b91505092915050565b7f496e76616c6964204e474f2061646472657373000000000000000000000000005f82015250565b5f6125d96013836122af565b91506125e4826125a5565b602082019050919050565b5f6020820190508181035f830152612606816125cd565b9050919050565b7f4e487b71000000000000000000000000000000000000000000000000000000005f52601160045260245ffd5b5f61264482611bc0565b915061264f83611bc0565b92508282039050818111156126675761266661260d565b5b92915050565b7f496e73756666696369656e7420617661696c61626c652066756e6473000000005f82015250565b5f6126a1601c836122af565b91506126ac8261266d565b602082019050919050565b5f6020820190508181035f8301526126ce81612695565b9050919050565b7f4e487b71000000000000000000000000000000000000000000000000000000005f52601260045260245ffd5b5f61270c82611bc0565b915061271783611bc0565b925082612727576127266126d5565b5b828204905092915050565b7f46697273742072656c656173652063616e6e6f742065786365656420353025205f8201527f6f6620646f6e6174696f6e730000000000000000000000000000000000000000602082015250565b5f61278c602c836122af565b915061279782612732565b604082019050919050565b5f6020820190508181035f8301526127b981612780565b9050919050565b5f6127ca82611bc0565b91506127d583611bc0565b92508282019050808211156127ed576127ec61260d565b5b92915050565b5f6040820190506128065f830185611f76565b6128136020830184611c1e565b9392505050565b5f60608201905061282d5f830186611f76565b61283a6020830185611f76565b6128476040830184611c1e565b94935050505056fea2646970667358221220378258f6c3f481af0ddcc09b9f119d3b66f0e5706da2b0b112e3f53d8ed09efc64736f6c634300081c0033","linkReferences":{}},"methodIdentifiers":{"approveProofAndReleaseFunds(bytes32)":"b1f126be","campaignManager()":"fb5e76e6","donationManager()":"aedcb72f","fundReleaseHistory(uint256,uint256)":"020d33ca","getAvailableFunds(uint256)":"c14eff97","getFundReleaseHistory(uint256)":"c9463564","getTotalReleasedFunds(uint256)":"07b82c92","hasReachedFirstMilestone(uint256)":"f5e3f9e5","hasReachedFullFunding(uint256)":"6dc41821","owner()":"8da5cb5b","proofProcessed(bytes32)":"f0aa8970","proofStorage()":"76b86c8b","rejectProof(bytes32,string)":"7cb575da","releasedFunds(uint256)":"0162cd8e","renounceOwnership()":"715018a6","transferOwnership(address)":"f2fde38b","usdtToken()":"a98ad46c"},"id":34}