{"abi":[{"type":"function","name":"getMyProofs","inputs":[],"outputs":[{"name":"","type":"tuple[]","internalType":"struct FundUsageProof.Proof[]","components":[{"name":"ipfsHash","type":"string","internalType":"string"},{"name":"description","type":"string","internalType":"string"}]}],"stateMutability":"view"},{"type":"function","name":"getUserProofs","inputs":[{"name":"_user","type":"address","internalType":"address"}],"outputs":[{"name":"","type":"tuple[]","internalType":"struct FundUsageProof.Proof[]","components":[{"name":"ipfsHash","type":"string","internalType":"string"},{"name":"description","type":"string","internalType":"string"}]}],"stateMutability":"view"},{"type":"function","name":"uploadProof","inputs":[{"name":"_ipfsHash","type":"string","internalType":"string"},{"name":"_description","type":"string","internalType":"string"}],"outputs":[],"stateMutability":"nonpayable"}],"bytecode":{"object":"0x6080604052348015600e575f5ffd5b50610b8f8061001c5f395ff3fe608060405234801561000f575f5ffd5b506004361061003f575f3560e01c80632b8643071461004357806346bdfb801461005f5780639dd126951461008f575b5f5ffd5b61005d6004803603810190610058919061060d565b6100ad565b005b610079600480360381019061007491906106dd565b610154565b6040516100869190610864565b60405180910390f35b61009761030b565b6040516100a49190610864565b60405180910390f35b5f5f3373ffffffffffffffffffffffffffffffffffffffff1673ffffffffffffffffffffffffffffffffffffffff1681526020019081526020015f20604051806040016040528084815260200183815250908060018154018082558091505060019003905f5260205f2090600202015f909190919091505f820151815f0190816101379190610a8a565b50602082015181600101908161014d9190610a8a565b5050505050565b60605f5f8373ffffffffffffffffffffffffffffffffffffffff1673ffffffffffffffffffffffffffffffffffffffff1681526020019081526020015f20805480602002602001604051908101604052809291908181526020015f905b82821015610300578382905f5260205f2090600202016040518060400160405290815f820180546101e1906108b1565b80601f016020809104026020016040519081016040528092919081815260200182805461020d906108b1565b80156102585780601f1061022f57610100808354040283529160200191610258565b820191905f5260205f20905b81548152906001019060200180831161023b57829003601f168201915b50505050508152602001600182018054610271906108b1565b80601f016020809104026020016040519081016040528092919081815260200182805461029d906108b1565b80156102e85780601f106102bf576101008083540402835291602001916102e8565b820191905f5260205f20905b8154815290600101906020018083116102cb57829003601f168201915b505050505081525050815260200190600101906101b1565b505050509050919050565b60605f5f3373ffffffffffffffffffffffffffffffffffffffff1673ffffffffffffffffffffffffffffffffffffffff1681526020019081526020015f20805480602002602001604051908101604052809291908181526020015f905b828210156104b7578382905f5260205f2090600202016040518060400160405290815f82018054610398906108b1565b80601f01602080910402602001604051908101604052809291908181526020018280546103c4906108b1565b801561040f5780601f106103e65761010080835404028352916020019161040f565b820191905f5260205f20905b8154815290600101906020018083116103f257829003601f168201915b50505050508152602001600182018054610428906108b1565b80601f0160208091040260200160405190810160405280929190818152602001828054610454906108b1565b801561049f5780601f106104765761010080835404028352916020019161049f565b820191905f5260205f20905b81548152906001019060200180831161048257829003601f168201915b50505050508152505081526020019060010190610368565b50505050905090565b5f604051905090565b5f5ffd5b5f5ffd5b5f5ffd5b5f5ffd5b5f601f19601f8301169050919050565b7f4e487b71000000000000000000000000000000000000000000000000000000005f52604160045260245ffd5b61051f826104d9565b810181811067ffffffffffffffff8211171561053e5761053d6104e9565b5b80604052505050565b5f6105506104c0565b905061055c8282610516565b919050565b5f67ffffffffffffffff82111561057b5761057a6104e9565b5b610584826104d9565b9050602081019050919050565b828183375f83830152505050565b5f6105b16105ac84610561565b610547565b9050828152602081018484840111156105cd576105cc6104d5565b5b6105d8848285610591565b509392505050565b5f82601f8301126105f4576105f36104d1565b5b813561060484826020860161059f565b91505092915050565b5f5f60408385031215610623576106226104c9565b5b5f83013567ffffffffffffffff8111156106405761063f6104cd565b5b61064c858286016105e0565b925050602083013567ffffffffffffffff81111561066d5761066c6104cd565b5b610679858286016105e0565b9150509250929050565b5f73ffffffffffffffffffffffffffffffffffffffff82169050919050565b5f6106ac82610683565b9050919050565b6106bc816106a2565b81146106c6575f5ffd5b50565b5f813590506106d7816106b3565b92915050565b5f602082840312156106f2576106f16104c9565b5b5f6106ff848285016106c9565b91505092915050565b5f81519050919050565b5f82825260208201905092915050565b5f819050602082019050919050565b5f81519050919050565b5f82825260208201905092915050565b8281835e5f83830152505050565b5f61076382610731565b61076d818561073b565b935061077d81856020860161074b565b610786816104d9565b840191505092915050565b5f604083015f8301518482035f8601526107ab8282610759565b915050602083015184820360208601526107c58282610759565b9150508091505092915050565b5f6107dd8383610791565b905092915050565b5f602082019050919050565b5f6107fb82610708565b6108058185610712565b93508360208202850161081785610722565b805f5b85811015610852578484038952815161083385826107d2565b945061083e836107e5565b925060208a0199505060018101905061081a565b50829750879550505050505092915050565b5f6020820190508181035f83015261087c81846107f1565b905092915050565b7f4e487b71000000000000000000000000000000000000000000000000000000005f52602260045260245ffd5b5f60028204905060018216806108c857607f821691505b6020821081036108db576108da610884565b5b50919050565b5f819050815f5260205f209050919050565b5f6020601f8301049050919050565b5f82821b905092915050565b5f6008830261093d7fffffffffffffffffffffffffffffffffffffffffffffffffffffffffffffffff82610902565b6109478683610902565b95508019841693508086168417925050509392505050565b5f819050919050565b5f819050919050565b5f61098b6109866109818461095f565b610968565b61095f565b9050919050565b5f819050919050565b6109a483610971565b6109b86109b082610992565b84845461090e565b825550505050565b5f5f905090565b6109cf6109c0565b6109da81848461099b565b505050565b5b818110156109fd576109f25f826109c7565b6001810190506109e0565b5050565b601f821115610a4257610a13816108e1565b610a1c846108f3565b81016020851015610a2b578190505b610a3f610a37856108f3565b8301826109df565b50505b505050565b5f82821c905092915050565b5f610a625f1984600802610a47565b1980831691505092915050565b5f610a7a8383610a53565b9150826002028217905092915050565b610a9382610731565b67ffffffffffffffff811115610aac57610aab6104e9565b5b610ab682546108b1565b610ac1828285610a01565b5f60209050601f831160018114610af2575f8415610ae0578287015190505b610aea8582610a6f565b865550610b51565b601f198416610b00866108e1565b5f5b82811015610b2757848901518255600182019150602085019450602081019050610b02565b86831015610b445784890151610b40601f891682610a53565b8355505b6001600288020188555050505b50505050505056fea264697066735822122074068ae5e98b6fc3fca959451a89b84fd53b83287f7aeec6e61cd9995fa3bd3a64736f6c634300081c0033","linkReferences":{}},"methodIdentifiers":{"getMyProofs()":"9dd12695","getUserProofs(address)":"46bdfb80","uploadProof(string,string)":"2b864307"},"id":0}