{"abi":[{"type":"constructor","inputs":[],"stateMutability":"nonpayable"},{"type":"function","name":"PROOF_STATUS_APPROVED","inputs":[],"outputs":[{"name":"","type":"uint8","internalType":"uint8"}],"stateMutability":"view"},{"type":"function","name":"PROOF_STATUS_FUNDS_RELEASED","inputs":[],"outputs":[{"name":"","type":"uint8","internalType":"uint8"}],"stateMutability":"view"},{"type":"function","name":"PROOF_STATUS_REJECTED","inputs":[],"outputs":[{"name":"","type":"uint8","internalType":"uint8"}],"stateMutability":"view"},{"type":"function","name":"PROOF_STATUS_SUBMITTED","inputs":[],"outputs":[{"name":"","type":"uint8","internalType":"uint8"}],"stateMutability":"view"},{"type":"function","name":"addValidator","inputs":[{"name":"_validator","type":"address","internalType":"address"}],"outputs":[],"stateMutability":"nonpayable"},{"type":"function","name":"getCampaignProofs","inputs":[{"name":"_campaignId","type":"uint256","internalType":"uint256"}],"outputs":[{"name":"","type":"bytes32[]","internalType":"bytes32[]"}],"stateMutability":"view"},{"type":"function","name":"getProof","inputs":[{"name":"_proofId","type":"bytes32","internalType":"bytes32"}],"outputs":[{"name":"","type":"tuple","internalType":"struct ProofStorage.Proof","components":[{"name":"id","type":"bytes32","internalType":"bytes32"},{"name":"campaignId","type":"uint256","internalType":"uint256"},{"name":"ipfsHash","type":"string","internalType":"string"},{"name":"description","type":"string","internalType":"string"},{"name":"amount","type":"uint256","internalType":"uint256"},{"name":"status","type":"uint8","internalType":"uint8"},{"name":"submitter","type":"address","internalType":"address"},{"name":"timestamp","type":"uint256","internalType":"uint256"}]}],"stateMutability":"view"},{"type":"function","name":"getProofAmount","inputs":[{"name":"_proofId","type":"bytes32","internalType":"bytes32"}],"outputs":[{"name":"","type":"uint256","internalType":"uint256"}],"stateMutability":"view"},{"type":"function","name":"getProofCampaign","inputs":[{"name":"_proofId","type":"bytes32","internalType":"bytes32"}],"outputs":[{"name":"","type":"uint256","internalType":"uint256"}],"stateMutability":"view"},{"type":"function","name":"getProofStatus","inputs":[{"name":"_proofId","type":"bytes32","internalType":"bytes32"}],"outputs":[{"name":"","type":"uint8","internalType":"uint8"}],"stateMutability":"view"},{"type":"function","name":"owner","inputs":[],"outputs":[{"name":"","type":"address","internalType":"address"}],"stateMutability":"view"},{"type":"function","name":"pause","inputs":[],"outputs":[],"stateMutability":"nonpayable"},{"type":"function","name":"paused","inputs":[],"outputs":[{"name":"","type":"bool","internalType":"bool"}],"stateMutability":"view"},{"type":"function","name":"proofExists","inputs":[{"name":"_proofId","type":"bytes32","internalType":"bytes32"}],"outputs":[{"name":"","type":"bool","internalType":"bool"}],"stateMutability":"view"},{"type":"function","name":"removeValidator","inputs":[{"name":"_validator","type":"address","internalType":"address"}],"outputs":[],"stateMutability":"nonpayable"},{"type":"function","name":"renounceOwnership","inputs":[],"outputs":[],"stateMutability":"nonpayable"},{"type":"function","name":"setProofStatus","inputs":[{"name":"_proofId","type":"bytes32","internalType":"bytes32"},{"name":"_status","type":"uint8","internalType":"uint8"}],"outputs":[],"stateMutability":"nonpayable"},{"type":"function","name":"submitProof","inputs":[{"name":"_campaignId","type":"uint256","internalType":"uint256"},{"name":"_ipfsHash","type":"string","internalType":"string"},{"name":"_description","type":"string","internalType":"string"},{"name":"_amount","type":"uint256","internalType":"uint256"}],"outputs":[{"name":"","type":"bytes32","internalType":"bytes32"}],"stateMutability":"nonpayable"},{"type":"function","name":"transferOwnership","inputs":[{"name":"newOwner","type":"address","internalType":"address"}],"outputs":[],"stateMutability":"nonpayable"},{"type":"function","name":"unpause","inputs":[],"outputs":[],"stateMutability":"nonpayable"},{"type":"function","name":"validators","inputs":[{"name":"","type":"address","internalType":"address"}],"outputs":[{"name":"","type":"bool","internalType":"bool"}],"stateMutability":"view"},{"type":"event","name":"OwnershipTransferred","inputs":[{"name":"previousOwner","type":"address","indexed":true,"internalType":"address"},{"name":"newOwner","type":"address","indexed":true,"internalType":"address"}],"anonymous":false},{"type":"event","name":"Paused","inputs":[{"name":"account","type":"address","indexed":false,"internalType":"address"}],"anonymous":false},{"type":"event","name":"ProofStatusChanged","inputs":[{"name":"proofId","type":"bytes32","indexed":true,"internalType":"bytes32"},{"name":"status","type":"uint8","indexed":false,"internalType":"uint8"}],"anonymous":false},{"type":"event","name":"ProofSubmitted","inputs":[{"name":"proofId","type":"bytes32","indexed":true,"internalType":"bytes32"},{"name":"campaignId","type":"uint256","indexed":true,"internalType":"uint256"},{"name":"ipfsHash","type":"string","indexed":false,"internalType":"string"},{"name":"amount","type":"uint256","indexed":false,"internalType":"uint256"}],"anonymous":false},{"type":"event","name":"Unpaused","inputs":[{"name":"account","type":"address","indexed":false,"internalType":"address"}],"anonymous":false},{"type":"event","name":"ValidatorAdded","inputs":[{"name":"validator","type":"address","indexed":true,"internalType":"address"}],"anonymous":false},{"type":"event","name":"ValidatorRemoved","inputs":[{"name":"validator","type":"address","indexed":true,"internalType":"address"}],"anonymous":false},{"type":"error","name":"EnforcedPause","inputs":[]},{"type":"error","name":"ExpectedPause","inputs":[]},{"type":"error","name":"OwnableInvalidOwner","inputs":[{"name":"owner","type":"address","internalType":"address"}]},{"type":"error","name":"OwnableUnauthorizedAccount","inputs":[{"name":"account","type":"address","internalType":"address"}]},{"type":"error","name":"ReentrancyGuardReentrantCall","inputs":[]}],"bytecode":{"object":"0x608060405234801561000f575f5ffd5b50335f73ffffffffffffffffffffffffffffffffffffffff168173ffffffffffffffffffffffffffffffffffffffff1603610081575f6040517f1e4fbdf7000000000000000000000000000000000000000000000000000000008152600401610078919061024e565b60405180910390fd5b6100908161014e60201b60201c565b50600180819055505f60025f6101000a81548160ff021916908315150217905550600160055f3373ffffffffffffffffffffffffffffffffffffffff1673ffffffffffffffffffffffffffffffffffffffff1681526020019081526020015f205f6101000a81548160ff0219169083151502179055503373ffffffffffffffffffffffffffffffffffffffff167fe366c1c0452ed8eec96861e9e54141ebff23c9ec89fe27b996b45f5ec388498760405160405180910390a2610267565b5f5f5f9054906101000a900473ffffffffffffffffffffffffffffffffffffffff169050815f5f6101000a81548173ffffffffffffffffffffffffffffffffffffffff021916908373ffffffffffffffffffffffffffffffffffffffff1602179055508173ffffffffffffffffffffffffffffffffffffffff168173ffffffffffffffffffffffffffffffffffffffff167f8be0079c531659141344cd1fd0a4f28419497f9722a3daafe3b4186f6b6457e060405160405180910390a35050565b5f73ffffffffffffffffffffffffffffffffffffffff82169050919050565b5f6102388261020f565b9050919050565b6102488161022e565b82525050565b5f6020820190506102615f83018461023f565b92915050565b61233a806102745f395ff3fe608060405234801561000f575f5ffd5b5060043610610135575f3560e01c806360b4ac2b116100b65780638da5cb5b1161007a5780638da5cb5b14610301578063d866bf9e1461031f578063d938d2021461034f578063f2fde38b1461037f578063fa52c7d81461039b578063fef2d39a146103cb57610135565b806360b4ac2b146102815780636447313e1461029f578063715018a6146102cf57806382fe5dbf146102d95780638456cb59146102f757610135565b80633f4ba83a116100fd5780633f4ba83a1461020357806340a141ff1461020d5780634c1253d7146102295780634d238c8e146102475780635c975abb1461026357610135565b80631663c19f146101395780631b80bb3a146101555780631d4f10961461018557806333e736c6146101b55780633cced748146101d3575b5f5ffd5b610153600480360381019061014e919061149b565b6103fb565b005b61016f600480360381019061016a91906114d9565b6105c6565b60405161017c919061169d565b60405180910390f35b61019f600480360381019061019a91906116e7565b6107f3565b6040516101ac91906117ba565b60405180910390f35b6101bd61085a565b6040516101ca91906117e9565b60405180910390f35b6101ed60048036038101906101e891906114d9565b61085f565b6040516101fa91906117e9565b60405180910390f35b61020b6108d0565b005b6102276004803603810190610222919061182c565b6108e2565b005b610231610a0d565b60405161023e91906117e9565b60405180910390f35b610261600480360381019061025c919061182c565b610a12565b005b61026b610bad565b6040516102789190611871565b60405180910390f35b610289610bc2565b60405161029691906117e9565b60405180910390f35b6102b960048036038101906102b491906114d9565b610bc7565b6040516102c69190611899565b60405180910390f35b6102d7610c2c565b005b6102e1610c3f565b6040516102ee91906117e9565b60405180910390f35b6102ff610c44565b005b610309610c56565b60405161031691906118c1565b60405180910390f35b61033960048036038101906103349190611a06565b610c7d565b6040516103469190611ab1565b60405180910390f35b610369600480360381019061036491906114d9565b610f75565b6040516103769190611871565b60405180910390f35b6103996004803603810190610394919061182c565b610fe1565b005b6103b560048036038101906103b0919061182c565b611065565b6040516103c29190611871565b60405180910390f35b6103e560048036038101906103e091906114d9565b611082565b6040516103f29190611899565b60405180910390f35b60055f3373ffffffffffffffffffffffffffffffffffffffff1673ffffffffffffffffffffffffffffffffffffffff1681526020019081526020015f205f9054906101000a900460ff168061048257503373ffffffffffffffffffffffffffffffffffffffff1661046a610c56565b73ffffffffffffffffffffffffffffffffffffffff16145b6104c1576040517f08c379a00000000000000000000000000000000000000000000000000000000081526004016104b890611b24565b60405180910390fd5b6104ca82610f75565b610509576040517f08c379a000000000000000000000000000000000000000000000000000000000815260040161050090611b8c565b60405180910390fd5b5f8160ff1611801561051f575060048160ff1611155b61055e576040517f08c379a000000000000000000000000000000000000000000000000000000000815260040161055590611bf4565b60405180910390fd5b8060035f8481526020019081526020015f206005015f6101000a81548160ff021916908360ff160217905550817ff244db8f1dd8d22badf02fdac789cc4b7c006a93dedb52110020ded3c210b9e3826040516105ba91906117e9565b60405180910390a25050565b6105ce6113c9565b6105d782610f75565b610616576040517f08c379a000000000000000000000000000000000000000000000000000000000815260040161060d90611b8c565b60405180910390fd5b60035f8381526020019081526020015f20604051806101000160405290815f82015481526020016001820154815260200160028201805461065690611c3f565b80601f016020809104026020016040519081016040528092919081815260200182805461068290611c3f565b80156106cd5780601f106106a4576101008083540402835291602001916106cd565b820191905f5260205f20905b8154815290600101906020018083116106b057829003601f168201915b505050505081526020016003820180546106e690611c3f565b80601f016020809104026020016040519081016040528092919081815260200182805461071290611c3f565b801561075d5780601f106107345761010080835404028352916020019161075d565b820191905f5260205f20905b81548152906001019060200180831161074057829003601f168201915b5050505050815260200160048201548152602001600582015f9054906101000a900460ff1660ff1660ff1681526020016005820160019054906101000a900473ffffffffffffffffffffffffffffffffffffffff1673ffffffffffffffffffffffffffffffffffffffff1673ffffffffffffffffffffffffffffffffffffffff1681526020016006820154815250509050919050565b606060045f8381526020019081526020015f2080548060200260200160405190810160405280929190818152602001828054801561084e57602002820191905f5260205f20905b81548152602001906001019080831161083a575b50505050509050919050565b600281565b5f61086982610f75565b6108a8576040517f08c379a000000000000000000000000000000000000000000000000000000000815260040161089f90611b8c565b60405180910390fd5b60035f8381526020019081526020015f206005015f9054906101000a900460ff169050919050565b6108d86110e7565b6108e061116e565b565b6108ea6110e7565b60055f8273ffffffffffffffffffffffffffffffffffffffff1673ffffffffffffffffffffffffffffffffffffffff1681526020019081526020015f205f9054906101000a900460ff16610973576040517f08c379a000000000000000000000000000000000000000000000000000000000815260040161096a90611cb9565b60405180910390fd5b5f60055f8373ffffffffffffffffffffffffffffffffffffffff1673ffffffffffffffffffffffffffffffffffffffff1681526020019081526020015f205f6101000a81548160ff0219169083151502179055508073ffffffffffffffffffffffffffffffffffffffff167fe1434e25d6611e0db941968fdc97811c982ac1602e951637d206f5fdda9dd8f160405160405180910390a250565b600381565b610a1a6110e7565b5f73ffffffffffffffffffffffffffffffffffffffff168173ffffffffffffffffffffffffffffffffffffffff1603610a88576040517f08c379a0000000000000000000000000000000000000000000000000000000008152600401610a7f90611d21565b60405180910390fd5b60055f8273ffffffffffffffffffffffffffffffffffffffff1673ffffffffffffffffffffffffffffffffffffffff1681526020019081526020015f205f9054906101000a900460ff1615610b12576040517f08c379a0000000000000000000000000000000000000000000000000000000008152600401610b0990611d89565b60405180910390fd5b600160055f8373ffffffffffffffffffffffffffffffffffffffff1673ffffffffffffffffffffffffffffffffffffffff1681526020019081526020015f205f6101000a81548160ff0219169083151502179055508073ffffffffffffffffffffffffffffffffffffffff167fe366c1c0452ed8eec96861e9e54141ebff23c9ec89fe27b996b45f5ec388498760405160405180910390a250565b5f60025f9054906101000a900460ff16905090565b600181565b5f610bd182610f75565b610c10576040517f08c379a0000000000000000000000000000000000000000000000000000000008152600401610c0790611b8c565b60405180910390fd5b60035f8381526020019081526020015f20600401549050919050565b610c346110e7565b610c3d5f6111cf565b565b600481565b610c4c6110e7565b610c54611290565b565b5f5f5f9054906101000a900473ffffffffffffffffffffffffffffffffffffffff16905090565b5f610c866112f2565b610c8e611338565b5f845111610cd1576040517f08c379a0000000000000000000000000000000000000000000000000000000008152600401610cc890611df1565b60405180910390fd5b5f835111610d14576040517f08c379a0000000000000000000000000000000000000000000000000000000008152600401610d0b90611e59565b60405180910390fd5b5f821015610d57576040517f08c379a0000000000000000000000000000000000000000000000000000000008152600401610d4e90611ec1565b60405180910390fd5b5f85854233604051602001610d6f9493929190611f7e565b604051602081830303815290604052805190602001209050610d9081610f75565b15610dd0576040517f08c379a0000000000000000000000000000000000000000000000000000000008152600401610dc790612011565b60405180910390fd5b604051806101000160405280828152602001878152602001868152602001858152602001848152602001600160ff1681526020013373ffffffffffffffffffffffffffffffffffffffff1681526020014281525060035f8381526020019081526020015f205f820151815f0155602082015181600101556040820151816002019081610e5c91906121cf565b506060820151816003019081610e7291906121cf565b506080820151816004015560a0820151816005015f6101000a81548160ff021916908360ff16021790555060c08201518160050160016101000a81548173ffffffffffffffffffffffffffffffffffffffff021916908373ffffffffffffffffffffffffffffffffffffffff16021790555060e0820151816006015590505060045f8781526020019081526020015f2081908060018154018082558091505060019003905f5260205f20015f909190919091505585817f4b10cfc08a9ee6c253599419f1a1b539c4646ed08263bcff7b93e7d3643496df8786604051610f599291906122d6565b60405180910390a380915050610f6d611379565b949350505050565b5f5f73ffffffffffffffffffffffffffffffffffffffff1660035f8481526020019081526020015f2060050160019054906101000a900473ffffffffffffffffffffffffffffffffffffffff1673ffffffffffffffffffffffffffffffffffffffff1614159050919050565b610fe96110e7565b5f73ffffffffffffffffffffffffffffffffffffffff168173ffffffffffffffffffffffffffffffffffffffff1603611059575f6040517f1e4fbdf700000000000000000000000000000000000000000000000000000000815260040161105091906118c1565b60405180910390fd5b611062816111cf565b50565b6005602052805f5260405f205f915054906101000a900460ff1681565b5f61108c82610f75565b6110cb576040517f08c379a00000000000000000000000000000000000000000000000000000000081526004016110c290611b8c565b60405180910390fd5b60035f8381526020019081526020015f20600101549050919050565b6110ef611382565b73ffffffffffffffffffffffffffffffffffffffff1661110d610c56565b73ffffffffffffffffffffffffffffffffffffffff161461116c57611130611382565b6040517f118cdaa700000000000000000000000000000000000000000000000000000000815260040161116391906118c1565b60405180910390fd5b565b611176611389565b5f60025f6101000a81548160ff0219169083151502179055507f5db9ee0a495bf2e6ff9c91a7834c1ba4fdd244a5e8aa4e537bd38aeae4b073aa6111b8611382565b6040516111c591906118c1565b60405180910390a1565b5f5f5f9054906101000a900473ffffffffffffffffffffffffffffffffffffffff169050815f5f6101000a81548173ffffffffffffffffffffffffffffffffffffffff021916908373ffffffffffffffffffffffffffffffffffffffff1602179055508173ffffffffffffffffffffffffffffffffffffffff168173ffffffffffffffffffffffffffffffffffffffff167f8be0079c531659141344cd1fd0a4f28419497f9722a3daafe3b4186f6b6457e060405160405180910390a35050565b611298611338565b600160025f6101000a81548160ff0219169083151502179055507f62e78cea01bee320cd4e420270b5ea74000d11b0c9f74754ebdbfc544b05a2586112db611382565b6040516112e891906118c1565b60405180910390a1565b60026001540361132e576040517f3ee5aeb500000000000000000000000000000000000000000000000000000000815260040160405180910390fd5b6002600181905550565b611340610bad565b15611377576040517fd93c066500000000000000000000000000000000000000000000000000000000815260040160405180910390fd5b565b60018081905550565b5f33905090565b611391610bad565b6113c7576040517f8dfc202b00000000000000000000000000000000000000000000000000000000815260040160405180910390fd5b565b6040518061010001604052805f81526020015f815260200160608152602001606081526020015f81526020015f60ff1681526020015f73ffffffffffffffffffffffffffffffffffffffff1681526020015f81525090565b5f604051905090565b5f5ffd5b5f5ffd5b5f819050919050565b61144481611432565b811461144e575f5ffd5b50565b5f8135905061145f8161143b565b92915050565b5f60ff82169050919050565b61147a81611465565b8114611484575f5ffd5b50565b5f8135905061149581611471565b92915050565b5f5f604083850312156114b1576114b061142a565b5b5f6114be85828601611451565b92505060206114cf85828601611487565b9150509250929050565b5f602082840312156114ee576114ed61142a565b5b5f6114fb84828501611451565b91505092915050565b61150d81611432565b82525050565b5f819050919050565b61152581611513565b82525050565b5f81519050919050565b5f82825260208201905092915050565b8281835e5f83830152505050565b5f601f19601f8301169050919050565b5f61156d8261152b565b6115778185611535565b9350611587818560208601611545565b61159081611553565b840191505092915050565b6115a481611465565b82525050565b5f73ffffffffffffffffffffffffffffffffffffffff82169050919050565b5f6115d3826115aa565b9050919050565b6115e3816115c9565b82525050565b5f61010083015f8301516115ff5f860182611504565b506020830151611612602086018261151c565b506040830151848203604086015261162a8282611563565b915050606083015184820360608601526116448282611563565b9150506080830151611659608086018261151c565b5060a083015161166c60a086018261159b565b5060c083015161167f60c08601826115da565b5060e083015161169260e086018261151c565b508091505092915050565b5f6020820190508181035f8301526116b581846115e9565b905092915050565b6116c681611513565b81146116d0575f5ffd5b50565b5f813590506116e1816116bd565b92915050565b5f602082840312156116fc576116fb61142a565b5b5f611709848285016116d3565b91505092915050565b5f81519050919050565b5f82825260208201905092915050565b5f819050602082019050919050565b5f6117468383611504565b60208301905092915050565b5f602082019050919050565b5f61176882611712565b611772818561171c565b935061177d8361172c565b805f5b838110156117ad578151611794888261173b565b975061179f83611752565b925050600181019050611780565b5085935050505092915050565b5f6020820190508181035f8301526117d2818461175e565b905092915050565b6117e381611465565b82525050565b5f6020820190506117fc5f8301846117da565b92915050565b61180b816115c9565b8114611815575f5ffd5b50565b5f8135905061182681611802565b92915050565b5f602082840312156118415761184061142a565b5b5f61184e84828501611818565b91505092915050565b5f8115159050919050565b61186b81611857565b82525050565b5f6020820190506118845f830184611862565b92915050565b61189381611513565b82525050565b5f6020820190506118ac5f83018461188a565b92915050565b6118bb816115c9565b82525050565b5f6020820190506118d45f8301846118b2565b92915050565b5f5ffd5b5f5ffd5b7f4e487b71000000000000000000000000000000000000000000000000000000005f52604160045260245ffd5b61191882611553565b810181811067ffffffffffffffff82111715611937576119366118e2565b5b80604052505050565b5f611949611421565b9050611955828261190f565b919050565b5f67ffffffffffffffff821115611974576119736118e2565b5b61197d82611553565b9050602081019050919050565b828183375f83830152505050565b5f6119aa6119a58461195a565b611940565b9050828152602081018484840111156119c6576119c56118de565b5b6119d184828561198a565b509392505050565b5f82601f8301126119ed576119ec6118da565b5b81356119fd848260208601611998565b91505092915050565b5f5f5f5f60808587031215611a1e57611a1d61142a565b5b5f611a2b878288016116d3565b945050602085013567ffffffffffffffff811115611a4c57611a4b61142e565b5b611a58878288016119d9565b935050604085013567ffffffffffffffff811115611a7957611a7861142e565b5b611a85878288016119d9565b9250506060611a96878288016116d3565b91505092959194509250565b611aab81611432565b82525050565b5f602082019050611ac45f830184611aa2565b92915050565b5f82825260208201905092915050565b7f4e6f7420617574686f72697a65642061732076616c696461746f7200000000005f82015250565b5f611b0e601b83611aca565b9150611b1982611ada565b602082019050919050565b5f6020820190508181035f830152611b3b81611b02565b9050919050565b7f50726f6f6620646f6573206e6f742065786973740000000000000000000000005f82015250565b5f611b76601483611aca565b9150611b8182611b42565b602082019050919050565b5f6020820190508181035f830152611ba381611b6a565b9050919050565b7f496e76616c6964207374617475730000000000000000000000000000000000005f82015250565b5f611bde600e83611aca565b9150611be982611baa565b602082019050919050565b5f6020820190508181035f830152611c0b81611bd2565b9050919050565b7f4e487b71000000000000000000000000000000000000000000000000000000005f52602260045260245ffd5b5f6002820490506001821680611c5657607f821691505b602082108103611c6957611c68611c12565b5b50919050565b7f4e6f7420612076616c696461746f7200000000000000000000000000000000005f82015250565b5f611ca3600f83611aca565b9150611cae82611c6f565b602082019050919050565b5f6020820190508181035f830152611cd081611c97565b9050919050565b7f496e76616c69642076616c696461746f722061646472657373000000000000005f82015250565b5f611d0b601983611aca565b9150611d1682611cd7565b602082019050919050565b5f6020820190508181035f830152611d3881611cff565b9050919050565b7f416c726561647920612076616c696461746f72000000000000000000000000005f82015250565b5f611d73601383611aca565b9150611d7e82611d3f565b602082019050919050565b5f6020820190508181035f830152611da081611d67565b9050919050565b7f4950465320686173682063616e6e6f7420626520656d707479000000000000005f82015250565b5f611ddb601983611aca565b9150611de682611da7565b602082019050919050565b5f6020820190508181035f830152611e0881611dcf565b9050919050565b7f4465736372697074696f6e2063616e6e6f7420626520656d70747900000000005f82015250565b5f611e43601b83611aca565b9150611e4e82611e0f565b602082019050919050565b5f6020820190508181035f830152611e7081611e37565b9050919050565b7f416d6f756e74206d757374206265206e6f6e2d6e6567617469766500000000005f82015250565b5f611eab601b83611aca565b9150611eb682611e77565b602082019050919050565b5f6020820190508181035f830152611ed881611e9f565b9050919050565b5f819050919050565b611ef9611ef482611513565b611edf565b82525050565b5f81905092915050565b5f611f138261152b565b611f1d8185611eff565b9350611f2d818560208601611545565b80840191505092915050565b5f8160601b9050919050565b5f611f4f82611f39565b9050919050565b5f611f6082611f45565b9050919050565b611f78611f73826115c9565b611f56565b82525050565b5f611f898287611ee8565b602082019150611f998286611f09565b9150611fa58285611ee8565b602082019150611fb58284611f67565b60148201915081905095945050505050565b7f50726f6f6620616c7265616479206578697374730000000000000000000000005f82015250565b5f611ffb601483611aca565b915061200682611fc7565b602082019050919050565b5f6020820190508181035f83015261202881611fef565b9050919050565b5f819050815f5260205f209050919050565b5f6020601f8301049050919050565b5f82821b905092915050565b5f6008830261208b7fffffffffffffffffffffffffffffffffffffffffffffffffffffffffffffffff82612050565b6120958683612050565b95508019841693508086168417925050509392505050565b5f819050919050565b5f6120d06120cb6120c684611513565b6120ad565b611513565b9050919050565b5f819050919050565b6120e9836120b6565b6120fd6120f5826120d7565b84845461205c565b825550505050565b5f5f905090565b612114612105565b61211f8184846120e0565b505050565b5b81811015612142576121375f8261210c565b600181019050612125565b5050565b601f821115612187576121588161202f565b61216184612041565b81016020851015612170578190505b61218461217c85612041565b830182612124565b50505b505050565b5f82821c905092915050565b5f6121a75f198460080261218c565b1980831691505092915050565b5f6121bf8383612198565b9150826002028217905092915050565b6121d88261152b565b67ffffffffffffffff8111156121f1576121f06118e2565b5b6121fb8254611c3f565b612206828285612146565b5f60209050601f831160018114612237575f8415612225578287015190505b61222f85826121b4565b865550612296565b601f1984166122458661202f565b5f5b8281101561226c57848901518255600182019150602085019450602081019050612247565b868310156122895784890151612285601f891682612198565b8355505b6001600288020188555050505b505050505050565b5f6122a88261152b565b6122b28185611aca565b93506122c2818560208601611545565b6122cb81611553565b840191505092915050565b5f6040820190508181035f8301526122ee818561229e565b90506122fd602083018461188a565b939250505056fea2646970667358221220bff6e8bc3896000fa1285511e3ee7a376d85ab24369f45ec84e17bf309f1d37e64736f6c634300081c0033","linkReferences":{}},"methodIdentifiers":{"PROOF_STATUS_APPROVED()":"33e736c6","PROOF_STATUS_FUNDS_RELEASED()":"82fe5dbf","PROOF_STATUS_REJECTED()":"4c1253d7","PROOF_STATUS_SUBMITTED()":"60b4ac2b","addValidator(address)":"4d238c8e","getCampaignProofs(uint256)":"1d4f1096","getProof(bytes32)":"1b80bb3a","getProofAmount(bytes32)":"6447313e","getProofCampaign(bytes32)":"fef2d39a","getProofStatus(bytes32)":"3cced748","owner()":"8da5cb5b","pause()":"8456cb59","paused()":"5c975abb","proofExists(bytes32)":"d938d202","removeValidator(address)":"40a141ff","renounceOwnership()":"715018a6","setProofStatus(bytes32,uint8)":"1663c19f","submitProof(uint256,string,string,uint256)":"d866bf9e","transferOwnership(address)":"f2fde38b","unpause()":"3f4ba83a","validators(address)":"fa52c7d8"},"id":35}