{"abi":[{"type":"function","name":"getMyProofs","inputs":[],"outputs":[{"name":"","type":"tuple[]","internalType":"struct ProofStorage.Proof[]","components":[{"name":"ipfsHash","type":"string","internalType":"string"},{"name":"description","type":"string","internalType":"string"}]}],"stateMutability":"view"},{"type":"function","name":"getUserProofs","inputs":[{"name":"_user","type":"address","internalType":"address"}],"outputs":[{"name":"","type":"tuple[]","internalType":"struct ProofStorage.Proof[]","components":[{"name":"ipfsHash","type":"string","internalType":"string"},{"name":"description","type":"string","internalType":"string"}]}],"stateMutability":"view"},{"type":"function","name":"uploadProof","inputs":[{"name":"_ipfsHash","type":"string","internalType":"string"},{"name":"_description","type":"string","internalType":"string"}],"outputs":[],"stateMutability":"nonpayable"},{"type":"event","name":"ProofUploaded","inputs":[{"name":"user","type":"address","indexed":true,"internalType":"address"},{"name":"ipfsHash","type":"string","indexed":false,"internalType":"string"},{"name":"description","type":"string","indexed":false,"internalType":"string"}],"anonymous":false}],"bytecode":{"object":"0x6080604052348015600e575f5ffd5b50610db28061001c5f395ff3fe608060405234801561000f575f5ffd5b506004361061003f575f3560e01c80632b8643071461004357806346bdfb801461005f5780639dd126951461008f575b5f5ffd5b61005d600480360381019061005891906106e3565b6100ad565b005b610079600480360381019061007491906107b3565b61022a565b604051610086919061093a565b60405180910390f35b6100976103e1565b6040516100a4919061093a565b60405180910390f35b5f8251116100f0576040517f08c379a00000000000000000000000000000000000000000000000000000000081526004016100e7906109b4565b60405180910390fd5b5f815111610133576040517f08c379a000000000000000000000000000000000000000000000000000000000815260040161012a90610a1c565b60405180910390fd5b5f5f3373ffffffffffffffffffffffffffffffffffffffff1673ffffffffffffffffffffffffffffffffffffffff1681526020019081526020015f20604051806040016040528084815260200183815250908060018154018082558091505060019003905f5260205f2090600202015f909190919091505f820151815f0190816101bd9190610c40565b5060208201518160010190816101d39190610c40565b5050503373ffffffffffffffffffffffffffffffffffffffff167fb55d9f92f9ad74f7b35d9a1a9e34c941140b9b7725fc9d771c24235c2f1cc678838360405161021e929190610d47565b60405180910390a25050565b60605f5f8373ffffffffffffffffffffffffffffffffffffffff1673ffffffffffffffffffffffffffffffffffffffff1681526020019081526020015f20805480602002602001604051908101604052809291908181526020015f905b828210156103d6578382905f5260205f2090600202016040518060400160405290815f820180546102b790610a67565b80601f01602080910402602001604051908101604052809291908181526020018280546102e390610a67565b801561032e5780601f106103055761010080835404028352916020019161032e565b820191905f5260205f20905b81548152906001019060200180831161031157829003601f168201915b5050505050815260200160018201805461034790610a67565b80601f016020809104026020016040519081016040528092919081815260200182805461037390610a67565b80156103be5780601f10610395576101008083540402835291602001916103be565b820191905f5260205f20905b8154815290600101906020018083116103a157829003601f168201915b50505050508152505081526020019060010190610287565b505050509050919050565b60605f5f3373ffffffffffffffffffffffffffffffffffffffff1673ffffffffffffffffffffffffffffffffffffffff1681526020019081526020015f20805480602002602001604051908101604052809291908181526020015f905b8282101561058d578382905f5260205f2090600202016040518060400160405290815f8201805461046e90610a67565b80601f016020809104026020016040519081016040528092919081815260200182805461049a90610a67565b80156104e55780601f106104bc576101008083540402835291602001916104e5565b820191905f5260205f20905b8154815290600101906020018083116104c857829003601f168201915b505050505081526020016001820180546104fe90610a67565b80601f016020809104026020016040519081016040528092919081815260200182805461052a90610a67565b80156105755780601f1061054c57610100808354040283529160200191610575565b820191905f5260205f20905b81548152906001019060200180831161055857829003601f168201915b5050505050815250508152602001906001019061043e565b50505050905090565b5f604051905090565b5f5ffd5b5f5ffd5b5f5ffd5b5f5ffd5b5f601f19601f8301169050919050565b7f4e487b71000000000000000000000000000000000000000000000000000000005f52604160045260245ffd5b6105f5826105af565b810181811067ffffffffffffffff82111715610614576106136105bf565b5b80604052505050565b5f610626610596565b905061063282826105ec565b919050565b5f67ffffffffffffffff821115610651576106506105bf565b5b61065a826105af565b9050602081019050919050565b828183375f83830152505050565b5f61068761068284610637565b61061d565b9050828152602081018484840111156106a3576106a26105ab565b5b6106ae848285610667565b509392505050565b5f82601f8301126106ca576106c96105a7565b5b81356106da848260208601610675565b91505092915050565b5f5f604083850312156106f9576106f861059f565b5b5f83013567ffffffffffffffff811115610716576107156105a3565b5b610722858286016106b6565b925050602083013567ffffffffffffffff811115610743576107426105a3565b5b61074f858286016106b6565b9150509250929050565b5f73ffffffffffffffffffffffffffffffffffffffff82169050919050565b5f61078282610759565b9050919050565b61079281610778565b811461079c575f5ffd5b50565b5f813590506107ad81610789565b92915050565b5f602082840312156107c8576107c761059f565b5b5f6107d58482850161079f565b91505092915050565b5f81519050919050565b5f82825260208201905092915050565b5f819050602082019050919050565b5f81519050919050565b5f82825260208201905092915050565b8281835e5f83830152505050565b5f61083982610807565b6108438185610811565b9350610853818560208601610821565b61085c816105af565b840191505092915050565b5f604083015f8301518482035f860152610881828261082f565b9150506020830151848203602086015261089b828261082f565b9150508091505092915050565b5f6108b38383610867565b905092915050565b5f602082019050919050565b5f6108d1826107de565b6108db81856107e8565b9350836020820285016108ed856107f8565b805f5b85811015610928578484038952815161090985826108a8565b9450610914836108bb565b925060208a019950506001810190506108f0565b50829750879550505050505092915050565b5f6020820190508181035f83015261095281846108c7565b905092915050565b5f82825260208201905092915050565b7f4950465320686173682063616e6e6f7420626520656d707479000000000000005f82015250565b5f61099e60198361095a565b91506109a98261096a565b602082019050919050565b5f6020820190508181035f8301526109cb81610992565b9050919050565b7f4465736372697074696f6e2063616e6e6f7420626520656d70747900000000005f82015250565b5f610a06601b8361095a565b9150610a11826109d2565b602082019050919050565b5f6020820190508181035f830152610a33816109fa565b9050919050565b7f4e487b71000000000000000000000000000000000000000000000000000000005f52602260045260245ffd5b5f6002820490506001821680610a7e57607f821691505b602082108103610a9157610a90610a3a565b5b50919050565b5f819050815f5260205f209050919050565b5f6020601f8301049050919050565b5f82821b905092915050565b5f60088302610af37fffffffffffffffffffffffffffffffffffffffffffffffffffffffffffffffff82610ab8565b610afd8683610ab8565b95508019841693508086168417925050509392505050565b5f819050919050565b5f819050919050565b5f610b41610b3c610b3784610b15565b610b1e565b610b15565b9050919050565b5f819050919050565b610b5a83610b27565b610b6e610b6682610b48565b848454610ac4565b825550505050565b5f5f905090565b610b85610b76565b610b90818484610b51565b505050565b5b81811015610bb357610ba85f82610b7d565b600181019050610b96565b5050565b601f821115610bf857610bc981610a97565b610bd284610aa9565b81016020851015610be1578190505b610bf5610bed85610aa9565b830182610b95565b50505b505050565b5f82821c905092915050565b5f610c185f1984600802610bfd565b1980831691505092915050565b5f610c308383610c09565b9150826002028217905092915050565b610c4982610807565b67ffffffffffffffff811115610c6257610c616105bf565b5b610c6c8254610a67565b610c77828285610bb7565b5f60209050601f831160018114610ca8575f8415610c96578287015190505b610ca08582610c25565b865550610d07565b601f198416610cb686610a97565b5f5b82811015610cdd57848901518255600182019150602085019450602081019050610cb8565b86831015610cfa5784890151610cf6601f891682610c09565b8355505b6001600288020188555050505b505050505050565b5f610d1982610807565b610d23818561095a565b9350610d33818560208601610821565b610d3c816105af565b840191505092915050565b5f6040820190508181035f830152610d5f8185610d0f565b90508181036020830152610d738184610d0f565b9050939250505056fea2646970667358221220ee12696fbd45887f9fa72eeda1acba337629e45a7f581a4002394918f91f2cc864736f6c634300081c0033","linkReferences":{}},"methodIdentifiers":{"getMyProofs()":"9dd12695","getUserProofs(address)":"46bdfb80","uploadProof(string,string)":"2b864307"},"id":20}