{"abi":[{"type":"constructor","inputs":[],"stateMutability":"nonpayable"},{"type":"function","name":"addAuditor","inputs":[{"name":"_auditor","type":"address","internalType":"address"}],"outputs":[],"stateMutability":"nonpayable"},{"type":"function","name":"admin","inputs":[],"outputs":[{"name":"","type":"address","internalType":"address"}],"stateMutability":"view"},{"type":"function","name":"auditProof","inputs":[{"name":"_user","type":"address","internalType":"address"},{"name":"proofIndex","type":"uint256","internalType":"uint256"},{"name":"_flagged","type":"bool","internalType":"bool"}],"outputs":[],"stateMutability":"nonpayable"},{"type":"function","name":"auditors","inputs":[{"name":"","type":"address","internalType":"address"}],"outputs":[{"name":"","type":"bool","internalType":"bool"}],"stateMutability":"view"},{"type":"function","name":"getMyProofs","inputs":[],"outputs":[{"name":"","type":"tuple[]","internalType":"struct ProofStorage.Proof[]","components":[{"name":"ipfsHash","type":"string","internalType":"string"},{"name":"description","type":"string","internalType":"string"},{"name":"audited","type":"bool","internalType":"bool"},{"name":"flagged","type":"bool","internalType":"bool"}]}],"stateMutability":"view"},{"type":"function","name":"getUserProofs","inputs":[{"name":"_user","type":"address","internalType":"address"}],"outputs":[{"name":"","type":"tuple[]","internalType":"struct ProofStorage.Proof[]","components":[{"name":"ipfsHash","type":"string","internalType":"string"},{"name":"description","type":"string","internalType":"string"},{"name":"audited","type":"bool","internalType":"bool"},{"name":"flagged","type":"bool","internalType":"bool"}]}],"stateMutability":"view"},{"type":"function","name":"uploadProof","inputs":[{"name":"_ipfsHash","type":"string","internalType":"string"},{"name":"_description","type":"string","internalType":"string"}],"outputs":[],"stateMutability":"nonpayable"},{"type":"event","name":"ProofAudited","inputs":[{"name":"auditor","type":"address","indexed":true,"internalType":"address"},{"name":"user","type":"address","indexed":true,"internalType":"address"},{"name":"proofIndex","type":"uint256","indexed":false,"internalType":"uint256"},{"name":"flagged","type":"bool","indexed":false,"internalType":"bool"}],"anonymous":false},{"type":"event","name":"ProofUploaded","inputs":[{"name":"user","type":"address","indexed":true,"internalType":"address"},{"name":"ipfsHash","type":"string","indexed":false,"internalType":"string"},{"name":"description","type":"string","indexed":false,"internalType":"string"}],"anonymous":false}],"bytecode":{"object":"0x6080604052348015600e575f5ffd5b50335f5f6101000a81548173ffffffffffffffffffffffffffffffffffffffff021916908373ffffffffffffffffffffffffffffffffffffffff1602179055506118088061005b5f395ff3fe608060405234801561000f575f5ffd5b506004361061007b575f3560e01c80635a0e8975116100595780635a0e8975146100fb5780639dd1269514610117578063e429cef114610135578063f851a440146101515761007b565b80632b8643071461007f57806346bdfb801461009b57806347f9aa9f146100cb575b5f5ffd5b61009960048036038101906100949190610d74565b61016f565b005b6100b560048036038101906100b09190610e44565b61033c565b6040516100c2919061100b565b60405180910390f35b6100e560048036038101906100e09190610e44565b610608565b6040516100f2919061103a565b60405180910390f35b610115600480360381019061011091906110b0565b610625565b005b61011f610932565b60405161012c919061100b565b60405180910390f35b61014f600480360381019061014a9190610e44565b610b1d565b005b610159610c03565b604051610166919061110f565b60405180910390f35b5f8251116101b2576040517f08c379a00000000000000000000000000000000000000000000000000000000081526004016101a990611182565b60405180910390fd5b5f8151116101f5576040517f08c379a00000000000000000000000000000000000000000000000000000000081526004016101ec906111ea565b60405180910390fd5b60015f3373ffffffffffffffffffffffffffffffffffffffff1673ffffffffffffffffffffffffffffffffffffffff1681526020019081526020015f2060405180608001604052808481526020018381526020015f151581526020015f1515815250908060018154018082558091505060019003905f5260205f2090600302015f909190919091505f820151815f0190816102909190611405565b5060208201518160010190816102a69190611405565b506040820151816002015f6101000a81548160ff02191690831515021790555060608201518160020160016101000a81548160ff02191690831515021790555050503373ffffffffffffffffffffffffffffffffffffffff167fb55d9f92f9ad74f7b35d9a1a9e34c941140b9b7725fc9d771c24235c2f1cc678838360405161033092919061150c565b60405180910390a25050565b60605f5f9054906101000a900473ffffffffffffffffffffffffffffffffffffffff1673ffffffffffffffffffffffffffffffffffffffff163373ffffffffffffffffffffffffffffffffffffffff1614806103de575060025f3373ffffffffffffffffffffffffffffffffffffffff1673ffffffffffffffffffffffffffffffffffffffff1681526020019081526020015f205f9054906101000a900460ff165b61041d576040517f08c379a00000000000000000000000000000000000000000000000000000000081526004016104149061158b565b60405180910390fd5b60015f8373ffffffffffffffffffffffffffffffffffffffff1673ffffffffffffffffffffffffffffffffffffffff1681526020019081526020015f20805480602002602001604051908101604052809291908181526020015f905b828210156105fd578382905f5260205f2090600302016040518060800160405290815f820180546104a990611235565b80601f01602080910402602001604051908101604052809291908181526020018280546104d590611235565b80156105205780601f106104f757610100808354040283529160200191610520565b820191905f5260205f20905b81548152906001019060200180831161050357829003601f168201915b5050505050815260200160018201805461053990611235565b80601f016020809104026020016040519081016040528092919081815260200182805461056590611235565b80156105b05780601f10610587576101008083540402835291602001916105b0565b820191905f5260205f20905b81548152906001019060200180831161059357829003601f168201915b50505050508152602001600282015f9054906101000a900460ff161515151581526020016002820160019054906101000a900460ff16151515158152505081526020019060010190610479565b505050509050919050565b6002602052805f5260405f205f915054906101000a900460ff1681565b60025f3373ffffffffffffffffffffffffffffffffffffffff1673ffffffffffffffffffffffffffffffffffffffff1681526020019081526020015f205f9054906101000a900460ff166106ae576040517f08c379a00000000000000000000000000000000000000000000000000000000081526004016106a5906115f3565b60405180910390fd5b60015f8473ffffffffffffffffffffffffffffffffffffffff1673ffffffffffffffffffffffffffffffffffffffff1681526020019081526020015f20805490508210610730576040517f08c379a00000000000000000000000000000000000000000000000000000000081526004016107279061165b565b60405180910390fd5b60015f8473ffffffffffffffffffffffffffffffffffffffff1673ffffffffffffffffffffffffffffffffffffffff1681526020019081526020015f20828154811061077f5761077e611679565b5b905f5260205f2090600302016002015f9054906101000a900460ff16156107db576040517f08c379a00000000000000000000000000000000000000000000000000000000081526004016107d2906116f0565b60405180910390fd5b6001805f8573ffffffffffffffffffffffffffffffffffffffff1673ffffffffffffffffffffffffffffffffffffffff1681526020019081526020015f20838154811061082b5761082a611679565b5b905f5260205f2090600302016002015f6101000a81548160ff0219169083151502179055508060015f8573ffffffffffffffffffffffffffffffffffffffff1673ffffffffffffffffffffffffffffffffffffffff1681526020019081526020015f2083815481106108a05761089f611679565b5b905f5260205f20906003020160020160016101000a81548160ff0219169083151502179055508273ffffffffffffffffffffffffffffffffffffffff163373ffffffffffffffffffffffffffffffffffffffff167f5e0807659324fccf8f027bbd8d3cf060693ada4d03b212f78d1dd9db55f5d112848460405161092592919061171d565b60405180910390a3505050565b606060015f3373ffffffffffffffffffffffffffffffffffffffff1673ffffffffffffffffffffffffffffffffffffffff1681526020019081526020015f20805480602002602001604051908101604052809291908181526020015f905b82821015610b14578382905f5260205f2090600302016040518060800160405290815f820180546109c090611235565b80601f01602080910402602001604051908101604052809291908181526020018280546109ec90611235565b8015610a375780601f10610a0e57610100808354040283529160200191610a37565b820191905f5260205f20905b815481529060010190602001808311610a1a57829003601f168201915b50505050508152602001600182018054610a5090611235565b80601f0160208091040260200160405190810160405280929190818152602001828054610a7c90611235565b8015610ac75780601f10610a9e57610100808354040283529160200191610ac7565b820191905f5260205f20905b815481529060010190602001808311610aaa57829003601f168201915b50505050508152602001600282015f9054906101000a900460ff161515151581526020016002820160019054906101000a900460ff16151515158152505081526020019060010190610990565b50505050905090565b5f5f9054906101000a900473ffffffffffffffffffffffffffffffffffffffff1673ffffffffffffffffffffffffffffffffffffffff163373ffffffffffffffffffffffffffffffffffffffff1614610bab576040517f08c379a0000000000000000000000000000000000000000000000000000000008152600401610ba2906117b4565b60405180910390fd5b600160025f8373ffffffffffffffffffffffffffffffffffffffff1673ffffffffffffffffffffffffffffffffffffffff1681526020019081526020015f205f6101000a81548160ff02191690831515021790555050565b5f5f9054906101000a900473ffffffffffffffffffffffffffffffffffffffff1681565b5f604051905090565b5f5ffd5b5f5ffd5b5f5ffd5b5f5ffd5b5f601f19601f8301169050919050565b7f4e487b71000000000000000000000000000000000000000000000000000000005f52604160045260245ffd5b610c8682610c40565b810181811067ffffffffffffffff82111715610ca557610ca4610c50565b5b80604052505050565b5f610cb7610c27565b9050610cc38282610c7d565b919050565b5f67ffffffffffffffff821115610ce257610ce1610c50565b5b610ceb82610c40565b9050602081019050919050565b828183375f83830152505050565b5f610d18610d1384610cc8565b610cae565b905082815260208101848484011115610d3457610d33610c3c565b5b610d3f848285610cf8565b509392505050565b5f82601f830112610d5b57610d5a610c38565b5b8135610d6b848260208601610d06565b91505092915050565b5f5f60408385031215610d8a57610d89610c30565b5b5f83013567ffffffffffffffff811115610da757610da6610c34565b5b610db385828601610d47565b925050602083013567ffffffffffffffff811115610dd457610dd3610c34565b5b610de085828601610d47565b9150509250929050565b5f73ffffffffffffffffffffffffffffffffffffffff82169050919050565b5f610e1382610dea565b9050919050565b610e2381610e09565b8114610e2d575f5ffd5b50565b5f81359050610e3e81610e1a565b92915050565b5f60208284031215610e5957610e58610c30565b5b5f610e6684828501610e30565b91505092915050565b5f81519050919050565b5f82825260208201905092915050565b5f819050602082019050919050565b5f81519050919050565b5f82825260208201905092915050565b8281835e5f83830152505050565b5f610eca82610e98565b610ed48185610ea2565b9350610ee4818560208601610eb2565b610eed81610c40565b840191505092915050565b5f8115159050919050565b610f0c81610ef8565b82525050565b5f608083015f8301518482035f860152610f2c8282610ec0565b91505060208301518482036020860152610f468282610ec0565b9150506040830151610f5b6040860182610f03565b506060830151610f6e6060860182610f03565b508091505092915050565b5f610f848383610f12565b905092915050565b5f602082019050919050565b5f610fa282610e6f565b610fac8185610e79565b935083602082028501610fbe85610e89565b805f5b85811015610ff95784840389528151610fda8582610f79565b9450610fe583610f8c565b925060208a01995050600181019050610fc1565b50829750879550505050505092915050565b5f6020820190508181035f8301526110238184610f98565b905092915050565b61103481610ef8565b82525050565b5f60208201905061104d5f83018461102b565b92915050565b5f819050919050565b61106581611053565b811461106f575f5ffd5b50565b5f813590506110808161105c565b92915050565b61108f81610ef8565b8114611099575f5ffd5b50565b5f813590506110aa81611086565b92915050565b5f5f5f606084860312156110c7576110c6610c30565b5b5f6110d486828701610e30565b93505060206110e586828701611072565b92505060406110f68682870161109c565b9150509250925092565b61110981610e09565b82525050565b5f6020820190506111225f830184611100565b92915050565b5f82825260208201905092915050565b7f4950465320686173682063616e6e6f7420626520656d707479000000000000005f82015250565b5f61116c601983611128565b915061117782611138565b602082019050919050565b5f6020820190508181035f83015261119981611160565b9050919050565b7f4465736372697074696f6e2063616e6e6f7420626520656d70747900000000005f82015250565b5f6111d4601b83611128565b91506111df826111a0565b602082019050919050565b5f6020820190508181035f830152611201816111c8565b9050919050565b7f4e487b71000000000000000000000000000000000000000000000000000000005f52602260045260245ffd5b5f600282049050600182168061124c57607f821691505b60208210810361125f5761125e611208565b5b50919050565b5f819050815f5260205f209050919050565b5f6020601f8301049050919050565b5f82821b905092915050565b5f600883026112c17fffffffffffffffffffffffffffffffffffffffffffffffffffffffffffffffff82611286565b6112cb8683611286565b95508019841693508086168417925050509392505050565b5f819050919050565b5f6113066113016112fc84611053565b6112e3565b611053565b9050919050565b5f819050919050565b61131f836112ec565b61133361132b8261130d565b848454611292565b825550505050565b5f5f905090565b61134a61133b565b611355818484611316565b505050565b5b818110156113785761136d5f82611342565b60018101905061135b565b5050565b601f8211156113bd5761138e81611265565b61139784611277565b810160208510156113a6578190505b6113ba6113b285611277565b83018261135a565b50505b505050565b5f82821c905092915050565b5f6113dd5f19846008026113c2565b1980831691505092915050565b5f6113f583836113ce565b9150826002028217905092915050565b61140e82610e98565b67ffffffffffffffff81111561142757611426610c50565b5b6114318254611235565b61143c82828561137c565b5f60209050601f83116001811461146d575f841561145b578287015190505b61146585826113ea565b8655506114cc565b601f19841661147b86611265565b5f5b828110156114a25784890151825560018201915060208501945060208101905061147d565b868310156114bf57848901516114bb601f8916826113ce565b8355505b6001600288020188555050505b505050505050565b5f6114de82610e98565b6114e88185611128565b93506114f8818560208601610eb2565b61150181610c40565b840191505092915050565b5f6040820190508181035f83015261152481856114d4565b9050818103602083015261153881846114d4565b90509392505050565b7f4163636573732064656e696564000000000000000000000000000000000000005f82015250565b5f611575600d83611128565b915061158082611541565b602082019050919050565b5f6020820190508181035f8301526115a281611569565b9050919050565b7f4f6e6c792061756469746f72732063616e207265766965772070726f6f6673005f82015250565b5f6115dd601f83611128565b91506115e8826115a9565b602082019050919050565b5f6020820190508181035f83015261160a816115d1565b9050919050565b7f496e76616c69642070726f6f6620696e646578000000000000000000000000005f82015250565b5f611645601383611128565b915061165082611611565b602082019050919050565b5f6020820190508181035f83015261167281611639565b9050919050565b7f4e487b71000000000000000000000000000000000000000000000000000000005f52603260045260245ffd5b7f416c7265616479206175646974656400000000000000000000000000000000005f82015250565b5f6116da600f83611128565b91506116e5826116a6565b602082019050919050565b5f6020820190508181035f830152611707816116ce565b9050919050565b61171781611053565b82525050565b5f6040820190506117305f83018561170e565b61173d602083018461102b565b9392505050565b7f4f6e6c792061646d696e2063616e20706572666f726d207468697320616374695f8201527f6f6e000000000000000000000000000000000000000000000000000000000000602082015250565b5f61179e602283611128565b91506117a982611744565b604082019050919050565b5f6020820190508181035f8301526117cb81611792565b905091905056fea26469706673582212202813208a64ff35a8173ef4da15957801c42814f1eaebd6f00680e419247e2d4a64736f6c634300081c0033","linkReferences":{}},"methodIdentifiers":{"addAuditor(address)":"e429cef1","admin()":"f851a440","auditProof(address,uint256,bool)":"5a0e8975","auditors(address)":"47f9aa9f","getMyProofs()":"9dd12695","getUserProofs(address)":"46bdfb80","uploadProof(string,string)":"2b864307"},"id":20}