{"abi":[{"type":"constructor","inputs":[],"stateMutability":"nonpayable"},{"type":"function","name":"activateCampaign","inputs":[{"name":"_campaignId","type":"uint256","internalType":"uint256"}],"outputs":[],"stateMutability":"nonpayable"},{"type":"function","name":"addVerifier","inputs":[{"name":"_verifier","type":"address","internalType":"address"}],"outputs":[],"stateMutability":"nonpayable"},{"type":"function","name":"campaignExists","inputs":[{"name":"_campaignId","type":"uint256","internalType":"uint256"}],"outputs":[{"name":"","type":"bool","internalType":"bool"}],"stateMutability":"view"},{"type":"function","name":"createCampaign","inputs":[{"name":"_title","type":"string","internalType":"string"},{"name":"_description","type":"string","internalType":"string"},{"name":"_fundingGoal","type":"uint256","internalType":"uint256"},{"name":"_durationInDays","type":"uint256","internalType":"uint256"}],"outputs":[{"name":"","type":"uint256","internalType":"uint256"}],"stateMutability":"nonpayable"},{"type":"function","name":"deactivateCampaign","inputs":[{"name":"_campaignId","type":"uint256","internalType":"uint256"}],"outputs":[],"stateMutability":"nonpayable"},{"type":"function","name":"getCampaign","inputs":[{"name":"_campaignId","type":"uint256","internalType":"uint256"}],"outputs":[{"name":"","type":"tuple","internalType":"struct CampaignManager.Campaign","components":[{"name":"id","type":"uint256","internalType":"uint256"},{"name":"ngo","type":"address","internalType":"address"},{"name":"title","type":"string","internalType":"string"},{"name":"description","type":"string","internalType":"string"},{"name":"fundingGoal","type":"uint256","internalType":"uint256"},{"name":"deadline","type":"uint256","internalType":"uint256"},{"name":"verified","type":"bool","internalType":"bool"},{"name":"active","type":"bool","internalType":"bool"},{"name":"timestamp","type":"uint256","internalType":"uint256"}]}],"stateMutability":"view"},{"type":"function","name":"getCampaignGoal","inputs":[{"name":"_campaignId","type":"uint256","internalType":"uint256"}],"outputs":[{"name":"","type":"uint256","internalType":"uint256"}],"stateMutability":"view"},{"type":"function","name":"getCampaignNGO","inputs":[{"name":"_campaignId","type":"uint256","internalType":"uint256"}],"outputs":[{"name":"","type":"address","internalType":"address"}],"stateMutability":"view"},{"type":"function","name":"getNGOCampaigns","inputs":[{"name":"_ngo","type":"address","internalType":"address"}],"outputs":[{"name":"","type":"uint256[]","internalType":"uint256[]"}],"stateMutability":"view"},{"type":"function","name":"isCampaignActive","inputs":[{"name":"_campaignId","type":"uint256","internalType":"uint256"}],"outputs":[{"name":"","type":"bool","internalType":"bool"}],"stateMutability":"view"},{"type":"function","name":"owner","inputs":[],"outputs":[{"name":"","type":"address","internalType":"address"}],"stateMutability":"view"},{"type":"function","name":"pause","inputs":[],"outputs":[],"stateMutability":"nonpayable"},{"type":"function","name":"paused","inputs":[],"outputs":[{"name":"","type":"bool","internalType":"bool"}],"stateMutability":"view"},{"type":"function","name":"removeVerifier","inputs":[{"name":"_verifier","type":"address","internalType":"address"}],"outputs":[],"stateMutability":"nonpayable"},{"type":"function","name":"renounceOwnership","inputs":[],"outputs":[],"stateMutability":"nonpayable"},{"type":"function","name":"transferOwnership","inputs":[{"name":"newOwner","type":"address","internalType":"address"}],"outputs":[],"stateMutability":"nonpayable"},{"type":"function","name":"unpause","inputs":[],"outputs":[],"stateMutability":"nonpayable"},{"type":"function","name":"verifiers","inputs":[{"name":"","type":"address","internalType":"address"}],"outputs":[{"name":"","type":"bool","internalType":"bool"}],"stateMutability":"view"},{"type":"function","name":"verifyCampaign","inputs":[{"name":"_campaignId","type":"uint256","internalType":"uint256"}],"outputs":[],"stateMutability":"nonpayable"},{"type":"event","name":"CampaignActivated","inputs":[{"name":"campaignId","type":"uint256","indexed":true,"internalType":"uint256"}],"anonymous":false},{"type":"event","name":"CampaignCreated","inputs":[{"name":"campaignId","type":"uint256","indexed":true,"internalType":"uint256"},{"name":"ngo","type":"address","indexed":true,"internalType":"address"},{"name":"title","type":"string","indexed":false,"internalType":"string"},{"name":"fundingGoal","type":"uint256","indexed":false,"internalType":"uint256"}],"anonymous":false},{"type":"event","name":"CampaignDeactivated","inputs":[{"name":"campaignId","type":"uint256","indexed":true,"internalType":"uint256"}],"anonymous":false},{"type":"event","name":"CampaignVerified","inputs":[{"name":"campaignId","type":"uint256","indexed":true,"internalType":"uint256"},{"name":"verifier","type":"address","indexed":true,"internalType":"address"}],"anonymous":false},{"type":"event","name":"OwnershipTransferred","inputs":[{"name":"previousOwner","type":"address","indexed":true,"internalType":"address"},{"name":"newOwner","type":"address","indexed":true,"internalType":"address"}],"anonymous":false},{"type":"event","name":"Paused","inputs":[{"name":"account","type":"address","indexed":false,"internalType":"address"}],"anonymous":false},{"type":"event","name":"Unpaused","inputs":[{"name":"account","type":"address","indexed":false,"internalType":"address"}],"anonymous":false},{"type":"event","name":"VerifierAdded","inputs":[{"name":"verifier","type":"address","indexed":true,"internalType":"address"}],"anonymous":false},{"type":"event","name":"VerifierRemoved","inputs":[{"name":"verifier","type":"address","indexed":true,"internalType":"address"}],"anonymous":false},{"type":"error","name":"EnforcedPause","inputs":[]},{"type":"error","name":"ExpectedPause","inputs":[]},{"type":"error","name":"OwnableInvalidOwner","inputs":[{"name":"owner","type":"address","internalType":"address"}]},{"type":"error","name":"OwnableUnauthorizedAccount","inputs":[{"name":"account","type":"address","internalType":"address"}]},{"type":"error","name":"ReentrancyGuardReentrantCall","inputs":[]}],"bytecode":{"object":"0x608060405234801561000f575f5ffd5b50335f73ffffffffffffffffffffffffffffffffffffffff168173ffffffffffffffffffffffffffffffffffffffff1603610081575f6040517f1e4fbdf7000000000000000000000000000000000000000000000000000000008152600401610078919061024e565b60405180910390fd5b6100908161014e60201b60201c565b50600180819055505f60025f6101000a81548160ff021916908315150217905550600160065f3373ffffffffffffffffffffffffffffffffffffffff1673ffffffffffffffffffffffffffffffffffffffff1681526020019081526020015f205f6101000a81548160ff0219169083151502179055503373ffffffffffffffffffffffffffffffffffffffff167f6d05492139c5ea989514a5d2150c028041e5c087e2a39967f67dc7d2655adb8160405160405180910390a2610267565b5f5f5f9054906101000a900473ffffffffffffffffffffffffffffffffffffffff169050815f5f6101000a81548173ffffffffffffffffffffffffffffffffffffffff021916908373ffffffffffffffffffffffffffffffffffffffff1602179055508173ffffffffffffffffffffffffffffffffffffffff168173ffffffffffffffffffffffffffffffffffffffff167f8be0079c531659141344cd1fd0a4f28419497f9722a3daafe3b4186f6b6457e060405160405180910390a35050565b5f73ffffffffffffffffffffffffffffffffffffffff82169050919050565b5f6102388261020f565b9050919050565b6102488161022e565b82525050565b5f6020820190506102615f83018461023f565b92915050565b61280a806102745f395ff3fe608060405234801561000f575f5ffd5b506004361061011f575f3560e01c80637eca30fe116100ab578063ca2dfd0a1161006f578063ca2dfd0a146102f1578063e1e330091461030d578063e5d9140e1461033d578063f2fde38b1461036d578063f52cb29b146103895761011f565b80637eca30fe146102615780638456cb591461027d5780638da5cb5b146102875780639000b3d6146102a5578063a318f269146102c15761011f565b8063493f1726116100f2578063493f1726146101bd5780635598f8cc146101d95780635c975abb146102095780636c82448714610227578063715018a6146102575761011f565b80631585ca0414610123578063367d4fda146101535780633b594a68146101835780633f4ba83a146101b3575b5f5ffd5b61013d600480360381019061013891906118f4565b6103a5565b60405161014a91906119df565b60405180910390f35b61016d60048036038101906101689190611a29565b610438565b60405161017a9190611a63565b60405180910390f35b61019d60048036038101906101989190611a29565b6104a7565b6040516101aa9190611a96565b60405180910390f35b6101bb6104c0565b005b6101d760048036038101906101d29190611a29565b6104d2565b005b6101f360048036038101906101ee9190611a29565b6106ee565b6040516102009190611c06565b60405180910390f35b61021161093d565b60405161021e9190611a96565b60405180910390f35b610241600480360381019061023c91906118f4565b610952565b60405161024e9190611a96565b60405180910390f35b61025f61096f565b005b61027b60048036038101906102769190611a29565b610982565b005b610285610b4c565b005b61028f610b5e565b60405161029c9190611c35565b60405180910390f35b6102bf60048036038101906102ba91906118f4565b610b85565b005b6102db60048036038101906102d69190611d7a565b610d20565b6040516102e89190611a63565b60405180910390f35b61030b600480360381019061030691906118f4565b611080565b005b61032760048036038101906103229190611a29565b6111ab565b6040516103349190611a96565b60405180910390f35b61035760048036038101906103529190611a29565b611255565b6040516103649190611c35565b60405180910390f35b610387600480360381019061038291906118f4565b6112e3565b005b6103a3600480360381019061039e9190611a29565b611367565b005b606060055f8373ffffffffffffffffffffffffffffffffffffffff1673ffffffffffffffffffffffffffffffffffffffff1681526020019081526020015f2080548060200260200160405190810160405280929190818152602001828054801561042c57602002820191905f5260205f20905b815481526020019060010190808311610418575b50505050509050919050565b5f815f8111801561044b57506003548111155b61048a576040517f08c379a000000000000000000000000000000000000000000000000000000000815260040161048190611e70565b60405180910390fd5b60045f8481526020019081526020015f2060040154915050919050565b5f5f821180156104b957506003548211155b9050919050565b6104c8611548565b6104d06115cf565b565b805f811180156104e457506003548111155b610523576040517f08c379a000000000000000000000000000000000000000000000000000000000815260040161051a90611e70565b60405180910390fd5b60065f3373ffffffffffffffffffffffffffffffffffffffff1673ffffffffffffffffffffffffffffffffffffffff1681526020019081526020015f205f9054906101000a900460ff16806105aa57503373ffffffffffffffffffffffffffffffffffffffff16610592610b5e565b73ffffffffffffffffffffffffffffffffffffffff16145b6105e9576040517f08c379a00000000000000000000000000000000000000000000000000000000081526004016105e090611ed8565b60405180910390fd5b5f60045f8481526020019081526020015f209050806006015f9054906101000a900460ff1661064d576040517f08c379a000000000000000000000000000000000000000000000000000000000815260040161064490611f40565b60405180910390fd5b8060060160019054906101000a900460ff161561069f576040517f08c379a000000000000000000000000000000000000000000000000000000000815260040161069690611fa8565b60405180910390fd5b60018160060160016101000a81548160ff021916908315150217905550827f141c887329aaf008f79cc3613bdf4b305d54d2f381909f35518966b3d6a79d5660405160405180910390a2505050565b6106f661182a565b815f8111801561070857506003548111155b610747576040517f08c379a000000000000000000000000000000000000000000000000000000000815260040161073e90611e70565b60405180910390fd5b60045f8481526020019081526020015f20604051806101200160405290815f8201548152602001600182015f9054906101000a900473ffffffffffffffffffffffffffffffffffffffff1673ffffffffffffffffffffffffffffffffffffffff1673ffffffffffffffffffffffffffffffffffffffff1681526020016002820180546107d290611ff3565b80601f01602080910402602001604051908101604052809291908181526020018280546107fe90611ff3565b80156108495780601f1061082057610100808354040283529160200191610849565b820191905f5260205f20905b81548152906001019060200180831161082c57829003601f168201915b5050505050815260200160038201805461086290611ff3565b80601f016020809104026020016040519081016040528092919081815260200182805461088e90611ff3565b80156108d95780601f106108b0576101008083540402835291602001916108d9565b820191905f5260205f20905b8154815290600101906020018083116108bc57829003601f168201915b505050505081526020016004820154815260200160058201548152602001600682015f9054906101000a900460ff161515151581526020016006820160019054906101000a900460ff16151515158152602001600782015481525050915050919050565b5f60025f9054906101000a900460ff16905090565b6006602052805f5260405f205f915054906101000a900460ff1681565b610977611548565b6109805f611630565b565b805f8111801561099457506003548111155b6109d3576040517f08c379a00000000000000000000000000000000000000000000000000000000081526004016109ca90611e70565b60405180910390fd5b60065f3373ffffffffffffffffffffffffffffffffffffffff1673ffffffffffffffffffffffffffffffffffffffff1681526020019081526020015f205f9054906101000a900460ff1680610a5a57503373ffffffffffffffffffffffffffffffffffffffff16610a42610b5e565b73ffffffffffffffffffffffffffffffffffffffff16145b610a99576040517f08c379a0000000000000000000000000000000000000000000000000000000008152600401610a9090611ed8565b60405180910390fd5b5f60045f8481526020019081526020015f2090508060060160019054906101000a900460ff16610afe576040517f08c379a0000000000000000000000000000000000000000000000000000000008152600401610af59061206d565b60405180910390fd5b5f8160060160016101000a81548160ff021916908315150217905550827fa8ad368de07a46b4c9632fee456e1227f02e971f82939d68bd4696b2e378dfa760405160405180910390a2505050565b610b54611548565b610b5c6116f1565b565b5f5f5f9054906101000a900473ffffffffffffffffffffffffffffffffffffffff16905090565b610b8d611548565b5f73ffffffffffffffffffffffffffffffffffffffff168173ffffffffffffffffffffffffffffffffffffffff1603610bfb576040517f08c379a0000000000000000000000000000000000000000000000000000000008152600401610bf2906120d5565b60405180910390fd5b60065f8273ffffffffffffffffffffffffffffffffffffffff1673ffffffffffffffffffffffffffffffffffffffff1681526020019081526020015f205f9054906101000a900460ff1615610c85576040517f08c379a0000000000000000000000000000000000000000000000000000000008152600401610c7c9061213d565b60405180910390fd5b600160065f8373ffffffffffffffffffffffffffffffffffffffff1673ffffffffffffffffffffffffffffffffffffffff1681526020019081526020015f205f6101000a81548160ff0219169083151502179055508073ffffffffffffffffffffffffffffffffffffffff167f6d05492139c5ea989514a5d2150c028041e5c087e2a39967f67dc7d2655adb8160405160405180910390a250565b5f610d29611753565b610d31611794565b5f855111610d74576040517f08c379a0000000000000000000000000000000000000000000000000000000008152600401610d6b906121a5565b60405180910390fd5b5f845111610db7576040517f08c379a0000000000000000000000000000000000000000000000000000000008152600401610dae9061220d565b60405180910390fd5b5f8311610df9576040517f08c379a0000000000000000000000000000000000000000000000000000000008152600401610df09061229b565b60405180910390fd5b5f8211610e3b576040517f08c379a0000000000000000000000000000000000000000000000000000000008152600401610e3290612329565b60405180910390fd5b60035f815480929190610e4d90612374565b919050555060405180610120016040528060035481526020013373ffffffffffffffffffffffffffffffffffffffff1681526020018681526020018581526020018481526020016201518084610ea391906123bb565b42610eae91906123fc565b81526020015f151581526020015f151581526020014281525060045f60035481526020019081526020015f205f820151815f01556020820151816001015f6101000a81548173ffffffffffffffffffffffffffffffffffffffff021916908373ffffffffffffffffffffffffffffffffffffffff1602179055506040820151816002019081610f3d91906125cf565b506060820151816003019081610f5391906125cf565b506080820151816004015560a0820151816005015560c0820151816006015f6101000a81548160ff02191690831515021790555060e08201518160060160016101000a81548160ff021916908315150217905550610100820151816007015590505060055f3373ffffffffffffffffffffffffffffffffffffffff1673ffffffffffffffffffffffffffffffffffffffff1681526020019081526020015f20600354908060018154018082558091505060019003905f5260205f20015f90919091909150553373ffffffffffffffffffffffffffffffffffffffff166003547f825fb10f7650ed27414d6f86acdf7d5946927d9b25001f045f1a2435deec02fe87866040516110639291906126d6565b60405180910390a360035490506110786117da565b949350505050565b611088611548565b60065f8273ffffffffffffffffffffffffffffffffffffffff1673ffffffffffffffffffffffffffffffffffffffff1681526020019081526020015f205f9054906101000a900460ff16611111576040517f08c379a00000000000000000000000000000000000000000000000000000000081526004016111089061274e565b60405180910390fd5b5f60065f8373ffffffffffffffffffffffffffffffffffffffff1673ffffffffffffffffffffffffffffffffffffffff1681526020019081526020015f205f6101000a81548160ff0219169083151502179055508073ffffffffffffffffffffffffffffffffffffffff167f44a3cd4eb5cc5748f6169df057b1cb2ae4c383e87cd94663c430e095d4cba42460405160405180910390a250565b5f815f811180156111be57506003548111155b6111fd576040517f08c379a00000000000000000000000000000000000000000000000000000000081526004016111f490611e70565b60405180910390fd5b5f60045f8581526020019081526020015f2090508060060160019054906101000a900460ff16801561123c5750806006015f9054906101000a900460ff165b801561124c575080600501544211155b92505050919050565b5f815f8111801561126857506003548111155b6112a7576040517f08c379a000000000000000000000000000000000000000000000000000000000815260040161129e90611e70565b60405180910390fd5b60045f8481526020019081526020015f206001015f9054906101000a900473ffffffffffffffffffffffffffffffffffffffff16915050919050565b6112eb611548565b5f73ffffffffffffffffffffffffffffffffffffffff168173ffffffffffffffffffffffffffffffffffffffff160361135b575f6040517f1e4fbdf70000000000000000000000000000000000000000000000000000000081526004016113529190611c35565b60405180910390fd5b61136481611630565b50565b805f8111801561137957506003548111155b6113b8576040517f08c379a00000000000000000000000000000000000000000000000000000000081526004016113af90611e70565b60405180910390fd5b60065f3373ffffffffffffffffffffffffffffffffffffffff1673ffffffffffffffffffffffffffffffffffffffff1681526020019081526020015f205f9054906101000a900460ff168061143f57503373ffffffffffffffffffffffffffffffffffffffff16611427610b5e565b73ffffffffffffffffffffffffffffffffffffffff16145b61147e576040517f08c379a000000000000000000000000000000000000000000000000000000000815260040161147590611ed8565b60405180910390fd5b5f60045f8481526020019081526020015f209050806006015f9054906101000a900460ff16156114e3576040517f08c379a00000000000000000000000000000000000000000000000000000000081526004016114da906127b6565b60405180910390fd5b6001816006015f6101000a81548160ff0219169083151502179055503373ffffffffffffffffffffffffffffffffffffffff16837fcd3ac142ca63f77a9b68e9d6ca66363c24d59be6fade6c25b9ef29c1cd0a82dd60405160405180910390a3505050565b6115506117e3565b73ffffffffffffffffffffffffffffffffffffffff1661156e610b5e565b73ffffffffffffffffffffffffffffffffffffffff16146115cd576115916117e3565b6040517f118cdaa70000000000000000000000000000000000000000000000000000000081526004016115c49190611c35565b60405180910390fd5b565b6115d76117ea565b5f60025f6101000a81548160ff0219169083151502179055507f5db9ee0a495bf2e6ff9c91a7834c1ba4fdd244a5e8aa4e537bd38aeae4b073aa6116196117e3565b6040516116269190611c35565b60405180910390a1565b5f5f5f9054906101000a900473ffffffffffffffffffffffffffffffffffffffff169050815f5f6101000a81548173ffffffffffffffffffffffffffffffffffffffff021916908373ffffffffffffffffffffffffffffffffffffffff1602179055508173ffffffffffffffffffffffffffffffffffffffff168173ffffffffffffffffffffffffffffffffffffffff167f8be0079c531659141344cd1fd0a4f28419497f9722a3daafe3b4186f6b6457e060405160405180910390a35050565b6116f9611753565b600160025f6101000a81548160ff0219169083151502179055507f62e78cea01bee320cd4e420270b5ea74000d11b0c9f74754ebdbfc544b05a25861173c6117e3565b6040516117499190611c35565b60405180910390a1565b61175b61093d565b15611792576040517fd93c066500000000000000000000000000000000000000000000000000000000815260040160405180910390fd5b565b6002600154036117d0576040517f3ee5aeb500000000000000000000000000000000000000000000000000000000815260040160405180910390fd5b6002600181905550565b60018081905550565b5f33905090565b6117f261093d565b611828576040517f8dfc202b00000000000000000000000000000000000000000000000000000000815260040160405180910390fd5b565b6040518061012001604052805f81526020015f73ffffffffffffffffffffffffffffffffffffffff16815260200160608152602001606081526020015f81526020015f81526020015f151581526020015f151581526020015f81525090565b5f604051905090565b5f5ffd5b5f5ffd5b5f73ffffffffffffffffffffffffffffffffffffffff82169050919050565b5f6118c38261189a565b9050919050565b6118d3816118b9565b81146118dd575f5ffd5b50565b5f813590506118ee816118ca565b92915050565b5f6020828403121561190957611908611892565b5b5f611916848285016118e0565b91505092915050565b5f81519050919050565b5f82825260208201905092915050565b5f819050602082019050919050565b5f819050919050565b61195a81611948565b82525050565b5f61196b8383611951565b60208301905092915050565b5f602082019050919050565b5f61198d8261191f565b6119978185611929565b93506119a283611939565b805f5b838110156119d25781516119b98882611960565b97506119c483611977565b9250506001810190506119a5565b5085935050505092915050565b5f6020820190508181035f8301526119f78184611983565b905092915050565b611a0881611948565b8114611a12575f5ffd5b50565b5f81359050611a23816119ff565b92915050565b5f60208284031215611a3e57611a3d611892565b5b5f611a4b84828501611a15565b91505092915050565b611a5d81611948565b82525050565b5f602082019050611a765f830184611a54565b92915050565b5f8115159050919050565b611a9081611a7c565b82525050565b5f602082019050611aa95f830184611a87565b92915050565b611ab8816118b9565b82525050565b5f81519050919050565b5f82825260208201905092915050565b8281835e5f83830152505050565b5f601f19601f8301169050919050565b5f611b0082611abe565b611b0a8185611ac8565b9350611b1a818560208601611ad8565b611b2381611ae6565b840191505092915050565b611b3781611a7c565b82525050565b5f61012083015f830151611b535f860182611951565b506020830151611b666020860182611aaf565b5060408301518482036040860152611b7e8282611af6565b91505060608301518482036060860152611b988282611af6565b9150506080830151611bad6080860182611951565b5060a0830151611bc060a0860182611951565b5060c0830151611bd360c0860182611b2e565b5060e0830151611be660e0860182611b2e565b50610100830151611bfb610100860182611951565b508091505092915050565b5f6020820190508181035f830152611c1e8184611b3d565b905092915050565b611c2f816118b9565b82525050565b5f602082019050611c485f830184611c26565b92915050565b5f5ffd5b5f5ffd5b7f4e487b71000000000000000000000000000000000000000000000000000000005f52604160045260245ffd5b611c8c82611ae6565b810181811067ffffffffffffffff82111715611cab57611caa611c56565b5b80604052505050565b5f611cbd611889565b9050611cc98282611c83565b919050565b5f67ffffffffffffffff821115611ce857611ce7611c56565b5b611cf182611ae6565b9050602081019050919050565b828183375f83830152505050565b5f611d1e611d1984611cce565b611cb4565b905082815260208101848484011115611d3a57611d39611c52565b5b611d45848285611cfe565b509392505050565b5f82601f830112611d6157611d60611c4e565b5b8135611d71848260208601611d0c565b91505092915050565b5f5f5f5f60808587031215611d9257611d91611892565b5b5f85013567ffffffffffffffff811115611daf57611dae611896565b5b611dbb87828801611d4d565b945050602085013567ffffffffffffffff811115611ddc57611ddb611896565b5b611de887828801611d4d565b9350506040611df987828801611a15565b9250506060611e0a87828801611a15565b91505092959194509250565b5f82825260208201905092915050565b7f43616d706169676e20646f6573206e6f742065786973740000000000000000005f82015250565b5f611e5a601783611e16565b9150611e6582611e26565b602082019050919050565b5f6020820190508181035f830152611e8781611e4e565b9050919050565b7f4e6f7420617574686f72697a65642061732076657269666965720000000000005f82015250565b5f611ec2601a83611e16565b9150611ecd82611e8e565b602082019050919050565b5f6020820190508181035f830152611eef81611eb6565b9050919050565b7f43616d706169676e206d757374206265207665726966696564206669727374005f82015250565b5f611f2a601f83611e16565b9150611f3582611ef6565b602082019050919050565b5f6020820190508181035f830152611f5781611f1e565b9050919050565b7f43616d706169676e20616c7265616479206163746976650000000000000000005f82015250565b5f611f92601783611e16565b9150611f9d82611f5e565b602082019050919050565b5f6020820190508181035f830152611fbf81611f86565b9050919050565b7f4e487b71000000000000000000000000000000000000000000000000000000005f52602260045260245ffd5b5f600282049050600182168061200a57607f821691505b60208210810361201d5761201c611fc6565b5b50919050565b7f43616d706169676e20616c726561647920696e616374697665000000000000005f82015250565b5f612057601983611e16565b915061206282612023565b602082019050919050565b5f6020820190508181035f8301526120848161204b565b9050919050565b7f496e76616c6964207665726966696572206164647265737300000000000000005f82015250565b5f6120bf601883611e16565b91506120ca8261208b565b602082019050919050565b5f6020820190508181035f8301526120ec816120b3565b9050919050565b7f416c7265616479206120766572696669657200000000000000000000000000005f82015250565b5f612127601283611e16565b9150612132826120f3565b602082019050919050565b5f6020820190508181035f8301526121548161211b565b9050919050565b7f5469746c652063616e6e6f7420626520656d70747900000000000000000000005f82015250565b5f61218f601583611e16565b915061219a8261215b565b602082019050919050565b5f6020820190508181035f8301526121bc81612183565b9050919050565b7f4465736372697074696f6e2063616e6e6f7420626520656d70747900000000005f82015250565b5f6121f7601b83611e16565b9150612202826121c3565b602082019050919050565b5f6020820190508181035f830152612224816121eb565b9050919050565b7f46756e64696e6720676f616c206d7573742062652067726561746572207468615f8201527f6e207a65726f0000000000000000000000000000000000000000000000000000602082015250565b5f612285602683611e16565b91506122908261222b565b604082019050919050565b5f6020820190508181035f8301526122b281612279565b9050919050565b7f4475726174696f6e206d7573742062652067726561746572207468616e207a655f8201527f726f000000000000000000000000000000000000000000000000000000000000602082015250565b5f612313602283611e16565b915061231e826122b9565b604082019050919050565b5f6020820190508181035f83015261234081612307565b9050919050565b7f4e487b71000000000000000000000000000000000000000000000000000000005f52601160045260245ffd5b5f61237e82611948565b91507fffffffffffffffffffffffffffffffffffffffffffffffffffffffffffffffff82036123b0576123af612347565b5b600182019050919050565b5f6123c582611948565b91506123d083611948565b92508282026123de81611948565b915082820484148315176123f5576123f4612347565b5b5092915050565b5f61240682611948565b915061241183611948565b925082820190508082111561242957612428612347565b5b92915050565b5f819050815f5260205f209050919050565b5f6020601f8301049050919050565b5f82821b905092915050565b5f6008830261248b7fffffffffffffffffffffffffffffffffffffffffffffffffffffffffffffffff82612450565b6124958683612450565b95508019841693508086168417925050509392505050565b5f819050919050565b5f6124d06124cb6124c684611948565b6124ad565b611948565b9050919050565b5f819050919050565b6124e9836124b6565b6124fd6124f5826124d7565b84845461245c565b825550505050565b5f5f905090565b612514612505565b61251f8184846124e0565b505050565b5b81811015612542576125375f8261250c565b600181019050612525565b5050565b601f821115612587576125588161242f565b61256184612441565b81016020851015612570578190505b61258461257c85612441565b830182612524565b50505b505050565b5f82821c905092915050565b5f6125a75f198460080261258c565b1980831691505092915050565b5f6125bf8383612598565b9150826002028217905092915050565b6125d882611abe565b67ffffffffffffffff8111156125f1576125f0611c56565b5b6125fb8254611ff3565b612606828285612546565b5f60209050601f831160018114612637575f8415612625578287015190505b61262f85826125b4565b865550612696565b601f1984166126458661242f565b5f5b8281101561266c57848901518255600182019150602085019450602081019050612647565b868310156126895784890151612685601f891682612598565b8355505b6001600288020188555050505b505050505050565b5f6126a882611abe565b6126b28185611e16565b93506126c2818560208601611ad8565b6126cb81611ae6565b840191505092915050565b5f6040820190508181035f8301526126ee818561269e565b90506126fd6020830184611a54565b9392505050565b7f4e6f7420612076657269666965720000000000000000000000000000000000005f82015250565b5f612738600e83611e16565b915061274382612704565b602082019050919050565b5f6020820190508181035f8301526127658161272c565b9050919050565b7f43616d706169676e20616c7265616479207665726966696564000000000000005f82015250565b5f6127a0601983611e16565b91506127ab8261276c565b602082019050919050565b5f6020820190508181035f8301526127cd81612794565b905091905056fea2646970667358221220c238d9f46f886e5548a1b86c150316a2ce9c52466af2554ca0c752b37dcdb80064736f6c634300081c0033","linkReferences":{}},"methodIdentifiers":{"activateCampaign(uint256)":"493f1726","addVerifier(address)":"9000b3d6","campaignExists(uint256)":"3b594a68","createCampaign(string,string,uint256,uint256)":"a318f269","deactivateCampaign(uint256)":"7eca30fe","getCampaign(uint256)":"5598f8cc","getCampaignGoal(uint256)":"367d4fda","getCampaignNGO(uint256)":"e5d9140e","getNGOCampaigns(address)":"1585ca04","isCampaignActive(uint256)":"e1e33009","owner()":"8da5cb5b","pause()":"8456cb59","paused()":"5c975abb","removeVerifier(address)":"ca2dfd0a","renounceOwnership()":"715018a6","transferOwnership(address)":"f2fde38b","unpause()":"3f4ba83a","verifiers(address)":"6c824487","verifyCampaign(uint256)":"f52cb29b"},"id":32}